:020000040800F2
:1000000050A500206D020008D5170008CD17000884
:10001000D1170008391500088D1E000800000000E7
:100020000000000000000000000000003919000876
:100030002D16000800000000ED170008D91900086F
:10004000870200088702000887020008870200086C
:10005000870200088702000887020008870200085C
:10006000870200088702000887020008870200084C
:10007000870200088702000887020008870200083C
:100080008702000887020008A5130008000000008E
:1000900000000000000000000000000087020008CF
:1000A000870200088702000887020008870200080C
:1000B000BD1A0008391B00088702000887020008E3
:1000C00087020008870200088702000887020008EC
:1000D000870200088702000887020008000000006D
:1000E000870200088702000887020008000000005D
:1000F000000000000000000000000000870200086F
:10010000000000008702000887020008870200083C
:1001100000000000000000000000000000000000DF
:100120006915000887020008870200088702000896
:10013000870200080000000000000000000000002E
:10014000000000000000000000000000870200081E
:10015000870200088702000887020008870200085B
:10016000870200088702000800000000000000006D
:10017000000000000000000000000000000000007F
:1001800000000000870200080000000000000000DE
:1001900087020008870200084B1C012B98BF70479C
:1001A0002DE9F003911C9B08B1F80480B1F802908E
:1001B0000A8831F802CC8044814402448444D9F84E
:1001C0000070D8F800601568DCF80040C9F80060DD
:1001D000C8F80070CCF800501460D9F80470D8F852
:1001E00004605568DCF80440C9F80460C8F804707D
:1001F000CCF80450546008315B1ED5D1BDE8F00343
:1002000070474B1C012B98BF70472DE9F003911CE0
:100210009B08B1F80480B1F802900A8831F802CC4A
:1002200000EB580800EB590900EB520200EB5C0CA4
:10023000D9F80070D8F800601568DCF80040C9F8FB
:100240000060C8F80070CCF80050146008315B1EE4
:10025000DFD1BDE8F0037047DFF80CD000F0CEFF2F
:10026000004800471525000850A500200648804793
:1002700006480047FEE7FEE7FEE7FEE7FEE7FEE78B
:10028000FEE7FEE7FEE7FEE7E11900085902000875
:100290009FED3D0A5FEA920C57D000BFD0ED000AF7
:1002A00090ED011A0B1D60EEA00A083041EE010A24
:1002B000F5EEC00AF1EE10FAC6BFB1EEE01A81ED1C
:1002C000001A81ED000AD0ED000A90ED011A191D07
:1002D00060EEA00A083041EE010AF5EEC00AF1EE28
:1002E00010FAC6BFB1EEE01A83ED001A83ED000AE2
:1002F000D0ED000A90ED011A0B1D60EEA00A083047
:1003000041EE010AF5EEC00AF1EE10FAC6BFB1EEF9
:10031000E01A81ED001A81ED000A90ED001AD0ED8F
:10032000010A191D21EE011A083000EEA01AB5EEDF
:10033000C01AF1EE10FAC6BFF1EEC10AC3ED000A11
:1003400083ED000ABCF1010CA8D112F0030208BF32
:10035000704700BFD0ED000A90ED011A0B4660EE29
:10036000A00A091D083041EE010AF5EEC00AF1EEBF
:1003700010FAC6BFB1EEE01A83ED001A83ED000A51
:10038000521EE7D170470000000000002DE9F04147
:1003900006462DED028B8C460088736801EB8004C5
:1003A0004508274601EB850004EB85025FEA9508C6
:1003B0007DD000BFD1ED003AD4ED001A91ED012AB5
:1003C00094ED013A73EEA16A91ED024A91ED031AA0
:1003D000D4ED022AD4ED035A90ED008A90ED017A13
:1003E00090ED020A90ED036A92ED005AD2ED014AB7
:1003F000D2ED027AD2ED030AC1ED006A72EE036A11
:1004000073EEE13A74EEC71AC1ED016A74EE226A26
:1004100074EE622A37EEC04AC1ED026A71EE256AB7
:10042000C1ED036A72EE436A31EE652A38EE051AB1
:1004300035EE483A80ED001A37EE241A80ED011AA5
:1004400030EE271A80ED021A36EE201A80ED031ADC
:1004500030EEC61A93ED000AD3ED010A63EE804A2E
:1004600026EEA05A66EE805A63EEA03A74EE854AF4
:1004700075EEE33AC4ED004A63EE204AC4ED013A5A
:1004800061EE803A61EEA00A23EE000A74EEE31AF0
:1004900030EE800AC2ED001A82ED010A93ED020AE5
:1004A000D3ED030A62EE803A22EE203A00E024E027
:1004B00062EEA01A22EE002A73EE832A1030103169
:1004C00072EE611AC4ED022A24EE202AC4ED031A4A
:1004D00061EE001A61EE200A24EE000A103332EEBB
:1004E000611A103430EE800A82ED021A82ED030A9E
:1004F0001032B8F101087FF45DAF2946022360464F
:10050000726800F041FB72682946BDEC028B3846E8
:10051000BDE8F041022300F037BB2DE9F34F2DED8C
:10052000048B87B00B980088470801EB870000EB2D
:10053000870606EB8705CDE90056DDF82C80A5F18E
:10054000040C0CEB8703CDE902014FEA5709D8F8F8
:1005500004800427CDE90497D1ED000A96ED000A46
:1005600090ED011A95ED013A70EE802A70EEC03AD6
:10057000D1ED010A96ED010A041F321F30EE802AE8
:1005800070EEC01A31EE230AD0ED000A32EE415A65
:1005900033EEC11A30EE434A71EEE04A95ED000A9F
:1005A00070EEA11A35EE435A74EE805A72EEE04AAC
:1005B00070EEA20A71EEC01A31EE031A74EEC04A50
:1005C00030EE800A062708F1080A81ED000A90ED56
:1005D000010AD5ED010A08F1100B30EE020A08F10C
:1005E000180830EE200A81ED010A80ED004AC0EDC6
:1005F000015AC6ED004A86ED015A85ED001AC5ED97
:10060000011ADDF810900830083108350836A9F1D4
:1006100002095FEA590900F0078100BFD1ED000A25
:1006200096ED000AD0ED011AD5ED014A30EE802A90
:1006300030EEC05AD1ED010A96ED010A70EE802A23
:1006400030EEC01A31EE850AD5ED000A30EE644A6C
:1006500090ED000A31EE403A30EE011A73EE205A66
:1006600032EE403A30EE020A31EE601A73EE603A32
:1006700030EE200A32EEE13A75EE611A81ED000AA1
:1006800090ED010AD5ED010A33EE643A30EE220A0C
:1006900071EEA41A30EE200A81ED010AD4ED002A91
:1006A000DCED004A54ED010A1CED010A32EEA47A99
:1006B00032EEE49A72EEE42A52ED018A70EE807A0C
:1006C00030EEC02A72EEE82AD2ED000A93ED000A5D
:1006D00013ED018A30EEC05A72EE886A77EEE82A8E
:1006E00035EE026A32EEC85A77EE602A72EEC04AE0
:1006F00070EEC02A70EE870A72EEC22A30EE800ACF
:1007000038EE682A84ED000A12ED010A53ED010A61
:1007100032EE492A30EE270A30EE200A04ED010AB3
:100720009AED000ADAED010A64EE007A25EEA07A6D
:1007300065EE805A24EE204A37EE877A35EEC44AB9
:1007400080ED007A80ED014A26EEA04A66EE005A5E
:1007500066EE200A26EE800A083034EE654A08313B
:1007600030EE800A82ED004A083C02ED010A9BED62
:10077000000ADBED010ADDF814E023EE804A63EEA7
:10078000205A23EE003A63EEA03A083A34EE254AA6
:100790000BEB8E0B33EE633A86ED004A0AF1080A42
:1007A00086ED013AB1EE643A083663EE003A25EE82
:1007B000203A25EE000A64EEA00A33EEC33A30EE8A
:1007C000C00A8CED003A0CED010A98ED000AD8ED54
:1007D000010A08EB870861EE803A21EE203A21EE0B
:1007E000001A61EEA01AACF1080C33EE833A31EE38
:1007F000611A85ED003A62EE801A85ED011A22EE4B
:10080000201A62EEA00A22EE000A083531EE611AC3
:1008100030EE800A83ED001A03ED010A083BB9F1BE
:1008200001097FF4FBAE00BFD1ED000A96ED000A8E
:1008300091ED011AD0ED015A30EE802A70EEC00A17
:1008400096ED010A95ED015A042371EE001A71EE3E
:10085000404A35EEA00A90ED001A31EEE54A70EEFE
:10086000E50A30EE453A95ED000A34EE454A30EEA1
:10087000855A74EEC12A72EE413A71EE240A31EEC5
:10088000021A72EE802A73EEC03A70EEC00A31EEA0
:10089000000A81ED000A90ED010A95ED011A30EE93
:1008A000210A30EE010A81ED010A9AED000A9AED63
:1008B000011A63EE001A22EE812A22EE800A23EE4C
:1008C000011A71EE821A30EE410AC0ED001A80ED75
:1008D000010A9BED000A9BED011A63EE801A24EEDB
:1008E000012A24EE000A23EE811A71EE821A30EEFC
:1008F000410AC6ED001A86ED010A98ED010A98ED4D
:10090000001A60EE801A25EE012A60EE810A25EEBB
:10091000000A32EE211A30EEC00A85ED001A85ED8C
:10092000010A0B984268DDE9030100F02DF90B98EC
:10093000042304994268029800F026F90B980423D6
:1009400004994268019800F01FF90B980499042358
:100950004268009807B0BDEC048B02B0BDE8F04FD0
:1009600000F012B92DE9F0410488984617460D466B
:100970000646012A20D1281DF4B1A0F1080114F087
:10098000010F06D091ED020AB1EE400A81ED020A94
:1009900008315FEA540C0FD091ED020AB1EE400A23
:1009A00081ED020A91ED040AB1EE400A81ED040ADC
:1009B0001031BCF1010CEFD1B4F5807F1BD008DC05
:1009C000102C13D0202C16D0402C19D0802C0DD0F8
:1009D0001CE0B4F5007F13D0B4F5806F06D0B4F5F9
:1009E000006F08D0B4F5805F0AD00FE0294630468A
:1009F000FFF7CCFC0AE029463046FFF78EFD05E004
:100A0000214601232846726800F0BEF8B8F1000FB5
:100A100004D0B1892846B268FFF7BEFB012F18BF8A
:100A2000BDE8F08100EE104AB7EE001A002CF8EE97
:100A3000400A81EE200A08BFBDE8F081A5F1080058
:100A400014F0010F0ED0D0ED020A60EE800AC0ED66
:100A5000020AD0ED030AF1EE600A60EE800AC0EDF2
:100A6000030A0830610808BFBDE8F081D0ED020A32
:100A700060EE800AC0ED020AD0ED030AF1EE600AD2
:100A800060EE800AC0ED030AD0ED040A60EE800A31
:100A9000C0ED040AD0ED050AF1EE600A60EE800AAE
:100AA000C0ED050A1030491EE0D1BDE8F08100001C
:100AB00070B44FF0000CB0EC010A4E1E6446B5084D
:100AC00031D000BFD0ED000A90ED011A0830B4EE2D
:100AD000E00AF1EE10FA3CBFB0EE600A0CF101043E
:100AE000F0EC010AB4EEC10AF1EE10FA3CBFB0EE30
:100AF000410A0CF10204B0EC011AB4EEE00AF1EE86
:100B000010FA3CBFB0EE600A0CF10304B4EEC10A67
:100B1000F1EE10FA3CBFB0EE410A0CF104046D1E78
:100B20000CF1040CCED106F0030C5FEA0C0617D0D2
:100B3000B6F1004F19D2002EC8BF002510DD00BF4E
:100B4000D0ED000AF4EEC00AF1EE10FA04DD4C1903
:100B5000B0EE600AA4EB0C04001D6D1C761EEFD1F4
:100B600082ED000A1C6070BC7047F0EC010AB4EE24
:100B7000E00AF1EE10FA3CBFB0EE600AA1EB0C0403
:100B8000BCF1010CF1D1EBE72DE9FF4F2DED108BFE
:100B900082B09FEDFEFA0B461C46DB084FF0000CBE
:100BA0000CEB030505EB030808EB030909EB03064F
:100BB00006EB030A00EBCC0700EBC60697ED001A24
:100BC000D6ED000A0AEB030B00EBC50500EBCA0AE1
:100BD00031EE200A71EE601A95ED002ADAED000A76
:100BE0000BEB030E00EBC80832EE201A00EBCB0B28
:100BF00032EE602AD8ED002ADBED000A00EBC909CD
:100C000000EBCE0E99ED003A9EED004A72EEA03A4E
:100C100072EEE02A73EE040A33EE443A70EE636A31
:100C200070EE233A31EE600A71EE200A33EEA01A1C
:100C300073EEE00A87ED001AC6ED000A97ED011A7F
:100C4000D6ED010AD5ED013A98ED014A31EE206A60
:100C500071EE600A9AED011A99ED015A73EE814A1C
:100C600073EEC13A9BED011A34EE017A34EE411A6B
:100C70009EED014A75EE045A35EE444A36EE475A67
:100C800036EE076A34EEE57A74EEA54A76EE245A1B
:100C900076EE644AC7ED015AC6ED014A76EE874A00
:100CA000C8ED004A76EEC74ACBED004A75EE404AE1
:100CB00035EE000AC8ED014A8BED010A32EE430A17
:100CC00032EE032A20EE0F0A62EE0F4A33EEC42AF8
:100CD000A4448C4522EE0F3A33EE842A30EEC34A08
:100CE00062EE0F3A30EE833A31EEC02A31EE800ADE
:100CF00071EE630A31EE231A72EEE41A72EEA42A40
:100D000070EE013A30EE410AC5ED003A8EED000A70
:100D100032EE200A8AED000A32EE600A89ED000AFE
:100D200033EE620A85ED010A33EE220A8EED010AE6
:100D300034EE610A8AED010A34EE210A89ED010AD6
:100D4000FFF42EAF082B3FBF02B0BDEC108B04B0F8
:100D5000BDE8F08F4FF0000CCDF804C04FF0010C4F
:100D6000CDF800C0DDF804C0159DAC444FEA8C05F9
:100D700005EB0C07CDF804C007EB0C094FEA4C0853
:100D800008EB0C0609EB0C0A02EBCC0C02EBC808D2
:100D900002EBC60602EBC50502EBC70702EBC90969
:100DA00002EBCA0A9CED00DA9CED018AD8ED00CA7C
:100DB00096ED00CAD5ED00BA97ED00BAD9ED00AABC
:100DC000DAED008AD8ED017A96ED01AA95ED017A67
:100DD000D7ED016A99ED016ADAED019ADDF800C0FC
:100DE0000CEB0307FD1805EB030A0AEB030808EBFD
:100DF000030606EB030B00EBCC0900EBC808D9EDAA
:100E0000000A98ED000A00EBC70700EBC606D7ED15
:100E1000001A96ED001A70EE803A0BEB030E70EE9E
:100E2000C00A31EE810A00EBC50500EBCB0B31EEB9
:100E3000C11AD5ED001A9BED002A00EBCA0A00EB9F
:100E4000CE0E31EE824A71EEC21A9AED002ADEED24
:100E5000002A32EE223A32EE622A73EEC42A73EE90
:100E6000843A30EE435A30EE030A33EE803A73EEA2
:100E7000C0DA89ED003A99ED010A98ED013AD7ED13
:100E8000013A95ED014A70EE03EA30EE433A96EDF1
:100E9000010A9AED01EADEED014A33EE809A73EE23
:100EA000C03A9BED010A74EE005A34EE404A3EEE21
:100EB000240A7EEE644A3EEEE5EA7EEEA55A79EE1D
:100EC00040EA39EE009A32EEAE0A72EEEE2A75EE84
:100ED00089EA35EEC99A7EEE455AC9ED01EA3EEE41
:100EE000055A2BEEADEA67EE09EA2BEE899A67EE1A
:100EF0002DDA3EEE2EEA39EE6D9A88ED00EA67EEC5
:100F0000A5DA88ED019A2CEE809A6CEEA55A27EEB0
:100F1000800A39EE2D9A35EEC00A85ED009A66EE0C
:100F2000055A85ED010A2AEEA20A2AEE855A66EED6
:100F3000222A30EE250A8BED000A35EE620A73EEA6
:100F4000A42A8BED010A31EE420A31EE021A33EE89
:100F5000E42A62EE8F3A20EE0F0A21EE0F1A22EEFB
:100F60000F2A70EEC02A30EE800A71EEC10A71EECF
:100F7000811A33EE421A33EE022A34EE633A34EE2B
:100F8000234A70EE043A30EE444A01E0F304353F60
:100F900072EE834A72EEC32A32EE613A32EE210AD1
:100FA00071EE601A71EE200A2DEE232A28EE031A44
:100FB0002DEE033A68EE233AA44432EE011A28EEED
:100FC000842A8C4587ED001A33EE631A29EE843AA1
:100FD00087ED011A29EE801A28EE800A32EE011AF6
:100FE00030EE430A26EEA42A8EED001A8EED010A99
:100FF0002BEE240A26EEA11A6BEE211A30EE010A1E
:101000002CEE221A86ED000A31EEC20A6AEE221A8E
:1010100086ED010A2AEE200A6CEE200A31EE000A63
:101020008AED000A30EEE10A8AED010AFFF4D8AE3B
:10103000DDF800C00CF1010CCDF800C063453FF6AF
:1010400091AEDDF854C04FF6FF7404EACC0CCDF835
:1010500054C0072B3FF6A0AD02B0BDEC108B04B01E
:10106000BDE8F08F0EB540F2334102910021CDE989
:1010700000110A460B4600F073F803B000BD0000F3
:1010800030B5041E71F1000404DB4FF0004440420F
:1010900064EB0101141E73F1000405DB1C464FF0E4
:1010A0000043524263EB04038B4208BF824230BDCF
:1010B00030B5041E71F1000404DB4FF000444042DF
:1010C00064EB0101141E73F1000405DB1C464FF0B4
:1010D0000043524263EB0403994208BF904230BD83
:1010E0002DE9F05F0546002092469B46884606465D
:1010F000814640241BE0284641464746224600F0F0
:101100009EF853465A46C01A914110D311461846CC
:10111000224600F085F82D1A67EB01084F4622465B
:101120000120002100F07CF817EB00094E41201E41
:10113000A4F10104DFDC484631462A464346BDE8B7
:10114000F09F10B5141E73F1000408DA401C41F141
:10115000000192185B411A4301D120F0010010BD3B
:101160002DE9F04D92469B4611B1B1FA81F202E0B1
:10117000B0FA80F22032904600F052F804460F4652
:1011800040EA0A0041EA0B0153465A46084313D08D
:10119000114653EA010019D0C8F14002504600F050
:1011A0004EF805460E4650465946424600F038F87D
:1011B000084305D0012004E020463946BDE8F08D03
:1011C0000020054346EAE0762C4337430A9863053E
:1011D000E40AA0EB08000022FD0A44EA47540A3062
:1011E00002D500200146E9E7010510196941DDE952
:1011F000084500196941BDE8F04DA2E7064C074DCE
:1012000006E0E06840F0010394E8070098471034D6
:10121000AC42F6D3FFF724F8948C0008B48C000895
:10122000202A04DB203A00FA02F1002070479140A6
:10123000C2F1200320FA03F3194390407047202A9B
:1012400004DB203A21FA02F00021704721FA02F370
:10125000D040C2F120029140084319467047CA436A
:101260000260704700220A12D3430360704721B125
:10127000826842F00102826003E0826822F001028B
:10128000826070470021084A1168084A1140D0E97D
:1012900000231A4383681A43C3681A431143044A5C
:1012A000C2F804137047000004230140E030FCFF43
:1012B0000020014000B58DB00121084600F098FAE9
:1012C0000121080200F0B4FA0820019003208DF8F3
:1012D000080000208DF80B0001A9204800F002FA58
:1012E0002020019003208DF8080000208DF80B00CD
:1012F00001A91A4800F0F6F9002003900490059027
:10130000069003A8FFF7BEFF002007908DF820008D
:101310008DF821004FF08050099040100A90002075
:101320000B9001208DF8300007A90D4800F07EF8E1
:1013300001231A4603210A4800F0A2F8012240F2D4
:101340000521074800F062F8122000F044FA01215C
:101350000348FFF78CFF0DB000BD00000000024005
:101360000020014000200249886008604860704702
:10137000840000200146C86C80B2704770B50246F8
:101380000020002300240B12556801268E4005EA38
:10139000060415681D4015B10CB1012000E00020C5
:1013A00070BD000010B516480068401C1449086064
:1013B00040F205211348FFF7E1FF00B340F2052199
:1013C0001048FFF74FFF02210E48FFF748FF0D4876
:1013D000FFF7D0FF044600F0DFFF0B4841680C30F8
:1013E00000EB810080ED000A07488068401C064938
:1013F000886008464068401CC0F30B00486010BD80
:1014000014000020002001408400002010B50B468D
:101410000021D9B2012404FA01F11AB144680C4345
:10142000446002E044688C43446010BD30B502461D
:10143000002000235068104C20400D790C6844EACD
:1014400005242043506090680C4C2040D1E903549F
:101450002C438D682C434D7944EA45042043906029
:10146000D06A20F470000C7D641EE4B2234340EA8D
:101470000350D06230BD0000FFFEFFFCFDF7FFC04F
:10148000F0B504460D4600200021092D11DDE0686D
:10149000A5F10A0606EB4607072606FA07F1884378
:1014A000A5F10A0606EB460603FA06F10843E060DA
:1014B0000CE0206905EB4507072606FA07F188438B
:1014C00005EB450603FA06F108432061072A0FDA07
:1014D000606B561E06EB86071F2606FA07F1884347
:1014E000561E06EB860605FA06F10843606322E005
:1014F0000D2A0FDA206BD61F06EB86071F2606FA89
:1015000007F18843D61F06EB860605FA06F1084365
:10151000206310E0E06AA2F10D0606EB86071F26A5
:1015200006FA07F18843A2F10D0606EB860605FAD6
:1015300006F10843E062F0BD00BFFEE700200CE0CA
:10154000074901EB800191ED000A0649D1ED000A3F
:1015500020EE200A81ED000A401C0628F0D37047D7
:10156000AC2E00086400002010B50749074800F0C1
:101570002BF838B10449054800F00CF80449034839
:1015800000F008F810BD0000208000101064024038
:10159000104000100246094B9A4201D2084801E06F
:1015A0000648103801F000531BB1064B0B40C360D6
:1015B00002E0044B0B40836070470000106402405F
:1015C000006002407D0F7D0F70B5024600200024B0
:1015D0000025124EB24201D2114B01E00F4B103BDD
:1015E000104E0E4036B11E2606EAD124166806EAD1
:1015F000040502E0566906F0800501F000560EB1C0
:101600005C6800E01C68084E344004EA010616B12C
:101610000DB1012000E0002070BD00001064024008
:10162000006002403C0F3C0F7D0F7D0F70470000B3
:101630001CB50121082000F0DBF80121022000F098
:10164000D7F80121084600F0D3F8022000900120CD
:101650008DF804008DF807006946204800F042F834
:1016600002211E4800F0ABF80420009002208DF803
:10167000040000208DF8060001208DF8070069465F
:10168000164800F02FF801220221144800F072F8E9
:101690008020009001208DF804008DF80700694635
:1016A0000E4800F01FF843F20300009001208DF86F
:1016B00004008DF807006946094800F013F843F26A
:1016C0000301074800F079F80221054800F077F897
:1016D0004FF48051024800F072F81CBD0000024037
:1016E00000040240F0B50A4600210023002400BF98
:1016F0003DE0012505FA01F3156805EA03049C4263
:1017000034D105684F000326BE40B5430560157906
:101710004E00B5400668354305601579012D02D0AD
:101720001579022D16D185684F000326BE40B543BA
:10173000856055794E00B5408668354385604568BB
:1017400001268E40B5434560456896798E40B6B215
:1017500035434560C5684F000326BE40B543C560AC
:10176000D5794E00B540C6683543C560491C10297F
:10177000BFD3F0BDF0B5002300244D07ED0E02FAF3
:1017800005F3CE1000F1200555F826504E07F70E50
:101790000F26BE40B543CF1000F1200646F8275073
:1017A000CE1000F1200555F8265045EA0304CE106E
:1017B00000F1200545F82640F0BD418370470183C4
:1017C00070470AB1018300E04183704700BFFEE724
:1017D00000BFFEE7704700F01F020121914042095F
:1017E000920002F1E022C2F8001170477047000039
:1017F00029B1064A12680243044B1A6004E0034A06
:1018000012688243014B1A60704700003038024072
:1018100029B1064A12680243044B1A6004E0034AE5
:1018200012688243014B1A60704700004038024042
:1018300029B1064A12680243044B1A6004E0034AC5
:1018400012688243014B1A6070470000443802401E
:10185000F0B5002100220024022500260223324F89
:101860003F6807F00C0121B1042905D0082937D1C0
:1018700005E02E4F076036E02D4F076033E02A4F1A
:101880003F1F3F68C7F38056274F3F1F3F6807F051
:101890003F036EB1264FB7FBF3F7DFF88CC0ACF116
:1018A000040CDCF800C0CCF3881C07FB0CF40CE043
:1018B0001E4FB7FBF3F7DFF870C0ACF1040CDCF897
:1018C00000C0CCF3881C07FB0CF4174F3F1F3F6888
:1018D000C7F301477F1C7D00B4FBF5F7076002E00A
:1018E000124F076000BF00BF0F4F3F6807F0F001C5
:1018F0000909104F7A5C0768D74047600A4F3F6874
:1019000007F4E051890A0B4F7A5C4768D74087603B
:10191000054F3F6807F46041490B064F7A5C476802
:10192000D740C760F0BD0000083802400024F40032
:1019300040787D0170000020704700002248006858
:1019400040F08050204908602048006840F4404042
:101950001E4908601C48383800681B49383908603F
:101960000846006808600846006840F48050086037
:101970001748091F0860081F006840F08070091FA1
:10198000086000BF10484038006800F00070002870
:10199000F8D040F202700F4908600B4838380068F0
:1019A00020F003000849383908600846006840F014
:1019B0000200086000BF04483838006800F00C00DE
:1019C0000828F8D1704700004038024000700040FD
:1019D00010640107003C024010B500F073F910BD1F
:1019E00010B51548006840F47000134908601348AA
:1019F000006840F001001149086000200F490831DB
:101A000008600E4800680E4908400C4908600D48FF
:101A1000091D0860081F006820F48020091F086065
:101A2000002006490C310860FFF788FF4FF0006086
:101A300001498039086010BD88ED00E0003802409F
:101A4000FFFFF6FE1030002410B588B001210846D3
:101A5000FFF7DEFE0024174800681749B0FBF1F0DD
:101A6000441E05A800F024F99B200690A0B2ADF812
:101A700014000020ADF81C00ADF8160005A94FF0C9
:101A8000804000F0D3F86020ADF800000120ADF8F0
:101A900002004D2002900020ADF80C0069464FF086
:101AA000804000F069F80121880700F050F808B084
:101AB00010BD00000000002040420F0010B50121C1
:101AC000880700F041F810BD3EB501210220FFF764
:101AD0009FFE0024154800681549B0FBF1F0441E34
:101AE000684600F0E5F8C3200190A0B2ADF8000010
:101AF0000020ADF80800ADF8020069460D4800F07E
:101B000095F820210B4800F087F80122114609487A
:101B100000F029F81220FFF75EFE1D20FFF75BFEA4
:101B20000121044800F013F83EBD00000000002031
:101B3000A08601000004004010B50121014800F01A
:101B400003F810BD00040040CA430282704721B16F
:101B5000028842F00102028004E002884FF6FE7320
:101B60001A40028070471AB183890B43838102E0D7
:101B700083898B438381704770B500240022002342
:101B8000058C4FF6FF6635400584028C8388848B74
:101B90004FF68F752C404FF6FC752C400D882C436A
:101BA0004FF6FF552A408D894FF6FF7606EA052548
:101BB0002A434D8806EA05252A43154DA84202D03E
:101BC000144DA8421DD14FF2FF752A40CD894FF622
:101BD000FF7606EA05252A434FF6FF352A408D8811
:101BE00006EA05252A434EF6FF752B404DF6FF7594
:101BF0002B400D8A06EA05152B434D8A06EA05158A
:101C00002B43838084838D68C563028470BD00008C
:101C1000000001400004014082884FF68F731A4093
:101C2000828082880A4382807047000000220288F6
:101C3000184B98420ED0184B98420BD0B0F1804F01
:101C400008D0164B984205D0154B984202D0154B40
:101C5000984204D14FF68F731A404B881A43124BA7
:101C6000984207D0114B984204D04FF6FF431A40D8
:101C70000B891A4302804B68C3620B880385054BAE
:101C8000984202D0044B984201D18B7A03860123FB
:101C900083827047000001400004014000040040BE
:101CA00000080040000C00400010004000140040FC
:101CB0004FF0FF314160002101800181418081723C
:101CC000704700000448006820B103480068401EC7
:101CD00001490860704700001800002021B1828986
:101CE00042F40052828104E082894DF6FF731A406B
:101CF0008281704700B587B001210846FFF778FD63
:101D000001210820FFF774FD01211020FFF790FD4D
:101D1000072209211D48FFF72DFD07220A211B4834
:101D2000FFF728FD00208DF80A0001208DF80B0038
:101D300002208DF808000002019002208DF80900B1
:101D400001A91248FFF7CEFC02208DF808004002DE
:101D5000019001A90D48FFF7C5FC4FF4E130039055
:101D60000020ADF81000ADF81200ADF81400ADF889
:101D700018000C20ADF8160003A9054800F018F86B
:101D800001210348FFF7AAFF07B000BD0000024091
:101D90000010014002460020B1F5007F00D100BFD5
:101DA00013880B400BB1012000E0002070470000B9
:101DB0002DE9FF4705460E460024A14600BFA04678
:101DC000B08900B100BF2C8A24F44054F088044349
:101DD0002C82AC8941F20C608443B088318908437D
:101DE000718908430443AC81AC8A24F44074B089FF
:101DF0000443AC826846FFF72BFD2048854202D0A1
:101E00001F48854202D1DDF80C9001E0DDF8089012
:101E1000A88900F4004040B109EBC90000EB0910AB
:101E200031684900B0FBF1F707E009EBC90000EBAE
:101E3000091031688900B0FBF1F76420B7FBF0F0BE
:101E400004012009642101FB1078A88900F40040F6
:101E500040B1322000EBC800B0FBF1F000F0070009
:101E6000044308E0322000EB08106421B0FBF1F0DD
:101E700000F00F0004432C81BDE8FF8700100140F3
:101E800000140140C1F308028280704700BFFEE7E2
:101E90000FB4054B10B503A9044A029800F018F8D6
:101EA00010BC5DF814FB00007523000880000020C2
:101EB00002E008C8121F08C1002AFAD17047704713
:101EC000002001E001C1121F002AFBD17047000071
:101ED0002DE9FF4F8DB00F460546002606E0252868
:101EE0000BD0DDE90F1290476D1C761C2878002876
:101EF000F5D111B03046BDE8F08F0024A246A146CE
:101F00000122EC4900E0044315F8013F203B02FAAE
:101F100003F00842F7D128782A2810D06FF02F025A
:101F20002878A0F13001092914D80AEB8A0102EBC4
:101F3000410144F0020400EB010A6D1CF0E701CFFF
:101F40005FEA000A03D544F40054CAF1000A44F0E1
:101F500002046D1C28782E2817D115F8010F44F0C3
:101F600004042A280ED06FF02F022878A0F1300147
:101F700009290AD809EB890102EB410100EB0109AB
:101F80006D1CF2E757F8049B6D1C28786C280FD065
:101F900006DC4C2817D068280DD06A2814D104E03C
:101FA000742810D07A280FD10DE044F400140AE010
:101FB00044F4801401E044F440146978814202D171
:101FC00004F580146D1C6D1C2A786E2A1FD00CDC61
:101FD000632A31D004DC002A8BD0582A11D1A3E027
:101FE000642A68D0692A0CD165E0732A2ED004DCFB
:101FF0006F2A73D0702A04D19BE0752A6FD0782A9B
:102000006ED01046DDE90F129047761C50E1C4F304
:102010000250022806D0032809D0042801CF09D095
:10202000066045E101CFF117C0E9006140E101CF51
:1020300006803DE106703BE117F8040B8DF80000C7
:1020400000208DF80100EB46012003E057F804BBA7
:102050004FF0FF3061074FF0000102D40DE008F1AE
:102060000101884649450FDA8045F8DB1BF8081066
:102070000029F4D108E008F1010188468142FADB29
:102080001BF808100029F6D1DDE90F23AAEB0800A0
:102090008146214600F036F9304400EB080604E0A2
:1020A000DDE90F121BF8010B9047B8F10108F7D2D8
:1020B00021464846F7E00A21C4F302534FF0000BD3
:1020C0000891022B04D001CFC117032B09D00AE0DD
:1020D000FF1D27F00707F7E8020108E032E01FE0E4
:1020E00020E000B2C117042B01D140B2C117031E7A
:1020F00071F1000307DA4FF0000CD0EB0C006CEB31
:1021000001012D2302E0230504D52B238DF8243073
:10211000012303E0E30701D02023F7E7984658E0C6
:102120000A2110E010210EE010204FF0000B089063
:102130000CE010214FF0000B44F004044FF00809AC
:10214000089103E008214FF0000B0891C4F30253FB
:10215000022B04D001CF0021032B06D006E0FF1D87
:1021600027F00707F7E8020103E080B2042B00D153
:10217000C0B24FF0000823072BD5702A07D0DDF836
:1021800020C08CF0100C5CEA0B0C05D00EE0402354
:102190008DF82430012308E050EA010306D03023F3
:1021A0008DF824308DF8252002239846DDF820C0D4
:1021B0008CF0080C5CEA0B0C0BD150EA010301D146
:1021C000630706D530238DF824304FF00108A9F1BC
:1021D0000109582A04D038A20B9208AA0A920BE0EF
:1021E0003AA2F9E75B46089AFEF77AFF0B9B9B5CE5
:1021F0000A9A521E0A92137050EA0102F2D10A980A
:10220000ADEB000000F1200B600702D524F4803410
:1022100001E04FF00109D94502DDA9EB0B0000E018
:10222000002000EB0B0141440890AAEB010AE003F7
:1022300006D4DDE90F232146504600F063F806443A
:102240004FF0000908E009A911F80900DDE90F12B3
:10225000904709F10109761CC145F4DBE0030CD578
:10226000DDE90F232146504600F04CF8064404E017
:10227000DDE90F1230209047761C0899481E08901F
:102280000029F5DC08E00A980A990078491C0A91AF
:10229000DDE90F129047761CBBF10001ABF1010B99
:1022A000F1DC21465046DDE90F2300F019F8064421
:1022B0006D1C1BE6092801003031323334353637C6
:1022C0003839616263646566000000003031323382
:1022D0003435363738394142434445460000000022
:1022E0002DE9F041044600251E461746880404D413
:1022F00005E039462020B0476D1C641EF9D52846FC
:10230000BDE8F0812DE9F041044600251E469046C7
:10231000C80301D5302700E02027880404D505E054
:1023200041463846B0476D1C641EF9D52846BDE8C5
:10233000F081000010B50123002209490948FEF789
:1023400011FB4FF4006208490548FDF7A1FF074B58
:10235000074A40F2FF310448001DFEF7A9FB10BDFB
:1023600090400020C42E00089080002040000020F3
:102370005C00002070B504460D46E1B20548FFF749
:1023800081FD00BF40210348FFF704FD0028F9D07C
:10239000204670BD001001400146002000EE901A5A
:1023A000F8EE600A00EB4002564B03EB8202C2EDEE
:1023B000000A97E000EB4002524B03EB8202D2EDA1
:1023C000000A00EB4002504B03EBC20292ED001AF0
:1023D00060EE810A00EB40024A4B03EB820292ED71
:1023E000011A00EB4002484B03EBC202D2ED011A86
:1023F00041EE210A00EB4002424B03EB820292EDD8
:10240000021A00EB4002404B03EBC202D2ED021A6B
:1024100041EE210A00EB40023C4B03EB820292EDBD
:10242000011A00EB4002384B03EBC202D2ED041A52
:1024300041EE610A00EB4002344B03EB820292ED65
:10244000021A00EB4002304B03EBC202D2ED051A38
:1024500041EE610A00EB40022C4B03EB8202C2ED1D
:10246000000A00EB4002274B03EB8202D2ED010A87
:1024700000EB400203EB8202C2ED020A00EB4002D5
:1024800003EB8202D2ED000A00EB400203EB820272
:10249000C2ED010A00EB40021C4B03EB8202D2EDBD
:1024A000010A00EB400203EB8202C2ED020A00EBDC
:1024B000400203EB8202D2ED000A00EB400203EB84
:1024C0008202C2ED010A00EB400203EB8202D2ED70
:1024D000000A421C02EB42020A4B03EB8202C2EDED
:1024E000000A401C0628FFF465AF00EB4002054BD4
:1024F00003EB8202D2ED000A054A92ED001A20EEAB
:10250000810A704790A000201C2E0008F0A0002037
:10251000640000202DED028BFFF78AF801220221D2
:10252000FC48FFF74EF9FFF7E5FBFFF7CDFAFFF7A1
:102530008BFAFEF7BFFEFFF701F8F7480168F7A036
:10254000FFF7A6FC0020FE490860FEA0FFF7A0FCF4
:10255000002405E0F0480168F0A0FFF799FC641C36
:10256000FF2CF7D90221EB48FFF727F900BF002421
:102570009FEDF90AF94880ED000A0020F84908604B
:10258000FEF7F0FE3BE0802000F0E2FBFFF7D2FE1A
:10259000F4480068FEF766FD41EC180B9FEDF20B66
:1025A00053EC102BFEF784FD22D8EE480068FEF7AE
:1025B00059FD41EC180B9FEDEE0B53EC102BFEF781
:1025C0005FFD15D8EC4890ED000AE448D0ED000A14
:1025D000B4EEE00AF1EE10FA09DDE74890ED000AEA
:1025E000DE4880ED000AE5480068DD490860641CAB
:1025F0000A2C00D304E00221012000F0E9FBC2E72D
:1026000000BFDE480068D64A1268811A002000F038
:10261000DFFB8021012000F0DBFB00240020D849F3
:1026200008600860D7490860C5490860D649086055
:102630004AE3802000F08CFBFFF77CFEC94800686D
:10264000FEF710FD41EC180B9FEDD00B53EC102B57
:10265000FEF72EFD1DD8C3480068FEF703FD41ECD0
:10266000180B9FEDCC0B53EC102BFEF709FD10D887
:10267000C4480068C0F1040100208840C0490968CE
:102680000843BF490860BF480068001DBD49086095
:10269000F2E2B4480068FEF7E5FC41EC180B9FED50
:1026A000BD0B53EC102BFEF703FD1DD8AD480068A1
:1026B000FEF7D8FC41EC180B9FEDB80B53EC102B38
:1026C000FEF7DEFC10D8AF480068C0F1040101201D
:1026D0008840AB4909680843A9490860A9480068CF
:1026E000001DA8490860C7E29E480068FEF7BAFCD2
:1026F00041EC180B9FEDA90B53EC102BFEF7D8FC07
:102700001DD898480068FEF7ADFC41EC180B9FED12
:10271000A50B53EC102BFEF7B3FC10D899480068BA
:10272000C0F1040102208840954909680843944992
:10273000086094480068001D924908609CE289483E
:102740000068FEF78FFC41EC180B9FED960B53ECE5
:10275000102BFEF7ADFC1DD882480068FEF782FC06
:1027600041EC180B9FED910B53EC102BFEF788FCFE
:1027700010D884480068C0F10401032088408049D3
:10278000096808437E4908607E480068001D7D494D
:10279000086071E273480068FEF764FC41EC180BB6
:1027A0009FED820B53EC102BFEF782FC1DD86D4879
:1027B0000068FEF757FC41EC180B9FED7E0B53ECC5
:1027C000102BFEF75DFC10D86E480068C0F10401C4
:1027D000042088406A4909680843694908606948D3
:1027E0000068001D6749086046E25E480068FEF721
:1027F00039FC41EC180B9FED6F0B53EC102BFEF7DF
:1028000057FC1DD857480068FEF72CFC41EC180B0C
:102810009FED6A0B53EC102BFEF732FC10D8594891
:102820000068C0F104010520884055490968084343
:102830005349086053480068001D524908601BE274
:1028400048480068FEF70EFC41EC180B9FED5B0B4F
:1028500053EC102BFEF72CFC1DD842480068FEF705
:1028600001FC41EC180B9FED570B53EC102BFEF7BE
:1028700007FC10D843480068C0F1040106208840D6
:102880003F49096808433E4908603E480068001D0A
:102890003C490860F0E133480068FEF7E3FB41EC97
:1028A000180B9FED480B53EC102BFEF701FC1DD8C5
:1028B0002C480068FEF7D6FB41EC180B9FED430B4C
:1028C00053EC102BFEF7DCFB10D82E480068C0F14B
:1028D0000401072088402A490968084328490860FC
:1028E00028480068001D27490860C5E11D480068A8
:1028F000FEF7B8FB41EC180B9FED340B53EC102B9B
:10290000FEF7D6FB7FD817480068FEF7ABFB41EC1B
:10291000180B60E000000240000000200A537973A9
:1029200074656D20636C6F636B20726174653A200F
:10293000256420487A207665723D342E300D0A00D9
:10294000240000205365617263682073796E6320F0
:102950002E2E2E2E2E2E00000000000060000020E3
:102960001C000020400000200000000000507740C4
:102970000000000000D077405C00002084000020B0
:102980004C000020540000205800002000000000EF
:1029900000A06E400000000000A06F40000000009A
:1029A000005070400000000000D0704000000000A7
:1029B000005071400000000000D071400000000095
:1029C000005072400000000000D072400000000083
:1029D0000050734017E09FEDBD0B53EC102BFEF73A
:1029E0004FFB10D8BB480068C0F1040108208840A4
:1029F000B94909680843B8490860B6480068001D2D
:102A0000B449086038E1B5480068FEF72BFB41EC9B
:102A1000180B9FEDAE0B53EC102BFEF749FB1DD8A6
:102A2000AE480068FEF71EFB41EC180B9FEDAC0BA7
:102A300053EC102BFEF724FB10D8A6480068C0F119
:102A4000040109208840A44909680843A249086094
:102A5000A0480068001D9F4908600DE19F4800687C
:102A6000FEF700FB41EC180B9FED9D0B53EC102B78
:102A7000FEF71EFB1DD899480068FEF7F3FA41ECFB
:102A8000180B9FED990B53EC102BFEF7F9FA10D8A9
:102A900090480068C0F104010A2088408E49096806
:102AA00008438D4908608B480068001D894908600B
:102AB000E2E08A480068FEF7D5FA41EC180B9FED7A
:102AC0008A0B53EC102BFEF7F3FA1DD883480068ED
:102AD000FEF7C8FA41EC180B9FED850B53EC102B59
:102AE000FEF7CEFA10D87B480068C0F104010B2035
:102AF0008840794909680843774908607548006843
:102B0000001D74490860B7E074480068FEF7AAFA2F
:102B100041EC180B9FED760B53EC102BFEF7C8FA27
:102B20001DD86E480068FEF79DFA41EC180B9FED2A
:102B3000720B53EC102BFEF7A3FA10D8654800680F
:102B4000C0F104010C2088406349096808436249C8
:102B5000086060480068001D5E4908608CE05F48BE
:102B60000068FEF77FFA41EC180B9FED630B53EC06
:102B7000102BFEF79DFA1DD858480068FEF772FA30
:102B800041EC180B9FED5E0B53EC102BFEF778FA1F
:102B900010D850480068C0F104010D2088404E490B
:102BA000096808434C4908604A480068001D4949C3
:102BB000086061E049480068FEF754FA41EC180BE0
:102BC0009FED4F0B53EC102BFEF772FA1DD84348C4
:102BD0000068FEF747FA41EC180B9FED4B0B53ECE6
:102BE000102BFEF74DFA10D83A480068C0F10401E6
:102BF0000E2088403849096808433749086035483D
:102C00000068001D3349086036E034480068FEF76C
:102C100029FA41EC180B9FED3C0B53EC102BFEF7FF
:102C200047FA1DD82D480068FEF71CFA41EC180B36
:102C30001FEDB30B53EC102BFEF722FA10D82548EA
:102C40000068C0F104010F20884023490968084347
:102C5000214908601F480068001D1E4908600BE0FC
:102C600002212B48FEF7A9FD1C480268194801689B
:102C700028A0FFF70DF97AE41648006808281FD34A
:102C8000154801682DA0FFF703F9134800782D4976
:102C90002D4A12688854104800682C490968401A67
:102CA000012804D002211A48FEF787FD03E0022123
:102CB0001748FEF784FD084800682449086056E478
:102CC0008021012000F084F8B3E40000000000003F
:102CD00000D07340540000204C0000204000002031
:102CE00000000000005074400000000000D074405C
:102CF00000000000005075400000000000D075404A
:102D000000000000005076400000000000D0764037
:102D1000000002400D0A7369676E616C206C6F736E
:102D2000652E2E2E206D3D25642074657374496ECA
:102D30006465783D25640D0A000000003078253078
:102D400032782C00280000202400002050000020B1
:102D5000014600BF1A4A9268802AFBD300201DE07A
:102D6000174A12680244C2F30B03154A0C3202EBF5
:102D7000830292ED000ADFED130A80EE201A124B57
:102D800003EBC00282ED001A9FED100A012202EB54
:102D9000400203EB820282ED000A401C8028DFD350
:102DA0004FF4807007E09FED090A074A02EB8002AA
:102DB00082ED000A401CB0F5805FF4D3704700003C
:102DC00084000020000080459040002000000000AA
:102DD00058B1114A9268521A0F4B9A601A461268FB
:102DE0000A44C2F30B021A6014E00B4A92680A44C8
:102DF000094B9A601A4612688A4204D31A4612682E
:102E0000521A1A6006E0044A126802F58052521AF9
:102E1000014B1A6070470000840000200000803FD2
:102E200000000000000080BF0000803FC7C5BABF9F
:102E30006936613F0000803F00000000000080BF55
:102E40000000803F2341D6BEE8F9513F0000803F9B
:102E500000000000000080BF0000803F76FE9DBFA4
:102E600001FA2C3F0000803F00000000000080BFFE
:102E70000000803F134DFEBEB1AA123F0000803F0C
:102E800000000000000080BF0000803F4CC478BFFD
:102E900010E7053F0000803F00000000000080BFF9
:102EA0000000803F29AC32BF27FEF13ECE489D3E58
:102EB000CE489D3E862E8D3E862E8D3E8CDF853EF5
:102EC0008CDF853E00080000D42E0008D46E000878
:102ED000E00E00000000803F00000000B1FF7F3FD7
:102EE000C70F493BC4FE7F3F890FC93B39FD7F3F78
:102EF00059CB163C11FB7F3F900E493C4AF87F3F6F
:102F00004B517B3CE6F47F3FB6C9963CE3F07F3FF4
:102F100069EAAF3C43EC7F3FB00AC93C05E77F3F1D
:102F20007B2AE23C29E17F3FB949FB3CAFDA7F3F96
:102F30002F340A3D98D37F3F2CC3163DE2CB7F3F11
:102F4000CC51233D8FC37F3F07E02F3D9EBA7F3F8B
:102F5000D56D3C3D0FB17F3F2FFB483DE3A67F3F42
:102F60000E88553D189C7F3F6814623DB1907F3FAD
:102F700038A06E3DAB847F3F742B7B3D08787F3F4C
:102F80000ADB833DC76A7F3F0A208A3DE95C7F3FB9
:102F9000B464903D6D4E7F3F05A9963D543F7F3F01
:102FA000F9EC9C3D9D2F7F3F8C30A33D491F7F3F17
:102FB000BA73A93D580E7F3F80B6AF3DC9FC7E3F36
:102FC000DAF8B53D9DEA7E3FC33ABC3DD4D77E3F9B
:102FD000397CC23D6DC47E3F36BDC83D69B07E3F81
:102FE000B7FDCE3DC99B7E3FB93DD53D8B867E3F2B
:102FF000377DDB3DB0707E3F2EBCE13D385A7E3FD1
:103000009AFAE73D23437E3F7638EE3D722B7E3FB2
:10301000C075F43D24137E3F73B2FA3D38FA7D3F0C
:103020004577003EB1E07D3F0295033E8CC67D3F73
:103030006EB2063ECCAB7D3F86CF093E6E907D3FA3
:103040004AEC0C3E74747D3FB708103EDE577D3F5E
:10305000CA24133EAC3A7D3F8340163EDD1C7D3FC3
:10306000E05B193E73FE7C3FDE761C3E6CDF7C3FEE
:103070007B911F3EC9BF7C3FB6AB223E8A9F7C3FFF
:103080008CC5253EB07E7C3FFCDE283E3A5D7C3F11
:1030900004F82B3E283B7C3FA2102F3E7A187C3F41
:1030A000D428323E31F57B3F9840353E4DD17B3FB1
:1030B000EC57383ECDAC7B3FCF6E3B3EB2877B3F7B
:1030C0003E853E3EFC617B3F379B413EAB3B7B3FB9
:1030D000B9B0443EBE147B3FC2C5473E37ED7A3F90
:1030E0004FDA4A3E16C57A3F60EE4D3E599C7A3F14
:1030F000F101513E02737A3F0115543E10497A3F67
:103100008F27573E841E7A3F97395A3E5EF3793FA8
:103110001A4B5D3E9DC7793F135C603E439B793FF0
:10312000836C633E4E6E793F667C663EC040793F5D
:10313000BA8B693E9812793F7F9A6C3ED6E3783F0E
:10314000B2A86F3E7BB4783F51B6723E8684783F1A
:103150005AC3753EF853783FCCCF783ED122783FA2
:10316000A4DB7B3E10F1773FE1E67E3EB7BE773FC2
:10317000C0F8803EC58B773FC07D823E3A58773F8E
:103180007002843E1724773FCE86853E5BEF763F04
:10319000DA0A873E07BA763F938E883E1B84763FD5
:1031A000F8118A3E974D763F07958B3E7A16763F0B
:1031B000C0178D3EC6DE753F229A8E3E7BA6753FB8
:1031C0002C1C903E976D753FDD9D913E1D34753FE3
:1031D000351F933E0BFA743F31A0943E62BF743F9B
:1031E000D220963E2284743F17A1973E4B48743FED
:1031F000FE20993EDD0B743F86A09A3ED9CE733FE8
:10320000AF1F9C3E3F91733F789E9D3E0E53733F90
:10321000DF1C9F3E4714733FE59AA03EEBD4723FFC
:103220008718A23EF894723FC595A33E7054723F32
:103230009F12A53E5213723F128FA63E9FD1713F3F
:103240001F0BA83E578F713FC486A93E7A4C713F31
:103250000102AB3E0809713FD47CAC3E02C5703F11
:103260003CF7AD3E6680703F3A71AF3E373B703FF2
:10327000CBEAB03E73F56F3FEF63B23E1BAF6F3FDB
:10328000A5DCB33E30686F3FEC54B53EB0206F3FD5
:10329000C3CCB63E9ED86E3F2A44B83EF88F6E3FF0
:1032A0001EBBB93EBE466E3FA031BB3EF2FC6D3F39
:1032B000AFA7BC3E93B26D3F4A1DBE3EA1676D3FB6
:1032C0006F92BF3E1D1C6D3F1E07C13E07D06C3F75
:1032D000557BC23E5E836C3F15EFC33E24366C3F88
:1032E0005C62C53E58E86B3F29D5C63EFB996B3FF3
:1032F0007C47C83E0C4B6B3F53B9C93E8CFB6A3FC1
:10330000AE2ACB3E7BAB6A3F8B9BCC3ED95A6A3F01
:10331000EA0BCE3EA7096A3FCA7BCF3EE4B7693FBE
:103320002AEBD03E9165693F095AD23EAE12693F01
:1033300067C8D33E3CBF683F4136D53E396B683FD6
:1033400099A3D63EA816683F6B10D83E87C1673F49
:10335000B97CD93ED86B673F80E8DA3E9915673F64
:10336000C153DC3ECCBE663F79BEDD3E7167663F31
:10337000A928DF3E880F663F4F92E03E10B7653FB9
:103380006AFBE13E0B5E653FFA63E33E7904653F0D
:10339000FECBE43E59AA643F7533E63EAC4F643F32
:1033A0005D9AE73E73F4633FB700E93EAC98633F34
:1033B0008166EA3E5A3C633FBBCBEB3E7BDF623F1C
:1033C0006330ED3E1082623F7994EE3E1A24623FF4
:1033D000FBF7EF3E98C5613FEA5AF13E8A66613FCE
:1033E00043BDF23EF206613F071FF43ECFA6603FA9
:1033F0003580F53E2146603FCBE0F63EE9E45F3F95
:10340000C840F83E27835F3F2DA0F93EDB205F3F99
:10341000F7FEFA3E05BE5E3F275DFC3EA65A5E3FC4
:10342000BBBAFD3EBEF65D3FB217FF3E4D925D3F1B
:10343000063A003F532D5D3FE4E7003FD1C75C3FB4
:103440007395013FC7615C3FB142023F34FB5B3F74
:103450009FEF023F1A945B3F3D9C033F792C5B3FFB
:103460008948043F50C45A3F84F4043FA05B5A3F4C
:103470002CA0053F6AF2593F824B063FAD88593F69
:1034800086F6063F6A1E593F36A1073FA1B3583F53
:10349000924B083F5348583F9BF5083F7FDC573F0E
:1034A0004E9F093F2670573FAD480A3F4803573F9C
:1034B000B7F10A3FE595563F6B9A0B3FFE27563F03
:1034C000C9420C3F93B9553FD0EA0C3FA44A553F3F
:1034D00081920D3F31DB543FDA390E3F3B6B543F55
:1034E000DBE00E3FC3FA533F84870F3FC789533F4A
:1034F000D52D103F4918533FCDD3103F49A6523F19
:103500006B79113FC633523FB01E123FC2C0513FCC
:103510009AC3123F3D4D513F2A68133F37D9503F60
:103520005F0C143FAF64503F39B0143FA8EF4F3FDA
:10353000B753153F1F7A4F3FD9F6153F17044F3F3A
:103540009F99163F908D4E3F073C173F89164E3F7F
:1035500012DE173F029F4D3FC07F183FFD264D3FB3
:103560000F21193F79AE4C3F00C2193F78354C3FCF
:1035700093621A3FF8BB4B3FC6021B3FFA414B3FD9
:1035800099A21B3F7FC74A3F0C421C3F874C4A3FD2
:103590001FE11C3F12D1493FD17F1D3F2155493FBB
:1035A000221E1E3FB3D8483F12BC1E3FCA5B483F95
:1035B0009F591F3F65DE473FCBF61F3F8560473F62
:1035C0009393203F2AE2463FF92F213F5463463F21
:1035D000FBCB213F03E4453F9967223F3964453FD8
:1035E000D302233FF5E3443FA99D233F3763443F84
:1035F0001A38243F00E2433F25D2243F5160433F25
:10360000CB6B253F29DE423F0A05263F895B423FBF
:10361000E39D263F70D8413F5636273FE154413F56
:1036200061CE273FDAD0403F0566283F5C4C403FE3
:1036300041FD283F67C73F3F1594293FFC413F3F6D
:10364000802A2A3F1BBC3E3F82C02A3FC5353E3FF1
:103650001B562B3FF9AE3D3F4AEB2B3FB8273D3F72
:103660000F802C3F03A03C3F69142D3FD9173C3FEE
:1036700059A82D3F3B8F3B3FDE3B2E3F29063B3F6A
:10368000F7CE2E3FA47C3A3FA5612F3FACF2393FE5
:10369000E6F32F3F4268393FBB85303F65DD383F59
:1036A0002217313F1652383F1DA8313F55C6373FCC
:1036B000AA38323F233A373FC9C8323F7FAD363F41
:1036C0007A58333F6C20363FBCE7333FE792353FB3
:1036D0008F76343FF304353FF304353F8F76343F24
:1036E000E792353FBCE7333F6C20363F7A58333F93
:1036F0007FAD363FC9C8323F233A373FAA38323F01
:1037000055C6373F1DA8313F1652383F2217313F6B
:1037100065DD383FBB85303F4268393FE6F32F3FD8
:10372000ACF2393FA5612F3FA47C3A3FF7CE2E3F44
:1037300029063B3FDE3B2E3F3B8F3B3F59A82D3FA9
:10374000D9173C3F69142D3F03A03C3F0F802C3F0D
:10375000B8273D3F4AEB2B3FF9AE3D3F1B562B3F71
:10376000C5353E3F82C02A3F1BBC3E3F802A2A3FD0
:10377000FC413F3F1594293F67C73F3F41FD283F2C
:103780005C4C403F0566283FDAD0403F61CE273F82
:10379000E154413F5636273F70D8413FE39D263FD5
:1037A000895B423F0A05263F29DE423FCB6B253F1E
:1037B0005160433F25D2243F00E2433F1A38243F63
:1037C0003763443FA99D233FF5E3443FD302233FA2
:1037D0003964453F9967223F03E4453FFBCB213FD6
:1037E0005463463FF92F213F2AE2463F9393203FFF
:1037F0008560473FCBF61F3F65DE473F9F591F3F20
:10380000CA5B483F12BC1E3FB3D8483F221E1E3F32
:103810002155493FD17F1D3F12D1493F1FE11C3F38
:10382000874C4A3F0C421C3F7FC74A3F99A21B3F2F
:10383000FA414B3FC6021B3FF8BB4B3F93621A3F16
:1038400078354C3F00C2193F79AE4C3F0F21193FEC
:10385000FD264D3FC07F183F029F4D3F12DE173FB0
:1038600089164E3F073C173F908D4E3F9F99163F5C
:1038700017044F3FD9F6153F1F7A4F3FB753153FF7
:10388000A8EF4F3F39B0143FAF64503F5F0C143F77
:1038900037D9503F2A68133F3D4D513F9AC3123FDD
:1038A000C2C0513FB01E123FC633523F6B79113F29
:1038B00049A6523FCDD3103F4918533FD52D103F55
:1038C000C789533F84870F3FC3FA533FDBE00E3F66
:1038D0003B6B543FDA390E3F31DB543F81920D3F51
:1038E000A44A553FD0EA0C3F93B9553FC9420C3F1B
:1038F000FE27563F6B9A0B3FE595563FB7F10A3FBF
:103900004803573FAD480A3F2670573F4E9F093F37
:103910007FDC573F9BF5083F5348583F924B083F89
:10392000A1B3583F36A1073F6A1E593F86F6063FAE
:10393000AD88593F824B063F6AF2593F2CA0053FA4
:10394000A05B5A3F84F4043F50C45A3F8948043F67
:10395000792C5B3F3D9C033F1A945B3F9FEF023FF6
:1039600034FB5B3FB142023FC7615C3F7395013F4F
:10397000D1C75C3FE4E7003F532D5D3F063A003F6F
:103980004D925D3FB217FF3EBEF65D3FBBBAFD3EB6
:10399000A65A5E3F275DFC3E05BE5E3FF7FEFA3E3F
:1039A000DB205F3F2DA0F93E27835F3FC840F83EF4
:1039B000E9E45F3FCBE0F63E2146603F3580F53ECF
:1039C000CFA6603F071FF43EF206613F43BDF23EC3
:1039D0008A66613FEA5AF13E98C5613FFBF7EF3EC8
:1039E0001A24623F7994EE3E1082623F6330ED3ECE
:1039F0007BDF623FBBCBEB3E5A3C633F8166EA3ED6
:103A0000AC98633FB700E93E73F4633F5D9AE73ECD
:103A1000AC4F643F7533E63E59AA643FFECBE43EAB
:103A20007904653FFA63E33E0B5E653F6AFBE13E66
:103A300010B7653F4F92E03E880F663FA928DF3EF2
:103A40007167663F79BEDD3ECCBE663FC153DC3E4A
:103A50009915673F80E8DA3ED86B673FB97CD93E5D
:103A600087C1673F6B10D83EA816683F99A3D63E22
:103A7000396B683F4136D53E3CBF683F67C8D33E8F
:103A8000AE12693F095AD23E9165693F2AEBD03E9A
:103A9000E4B7693FCA7BCF3EA7096A3FEA0BCE3E37
:103AA000D95A6A3F8B9BCC3E7BAB6A3FAE2ACB3E5A
:103AB0008CFB6A3F53B9C93E0C4B6B3F7C47C83EF9
:103AC000FB996B3F29D5C63E58E86B3F5C62C53E0B
:103AD00024366C3F15EFC33E5E836C3F557BC23E80
:103AE00007D06C3F1E07C13E1D1C6D3F6F92BF3E4D
:103AF000A1676D3F4A1DBE3E93B26D3FAFA7BC3E6E
:103B0000F2FC6D3FA031BB3EBE466E3F1EBBB93ED0
:103B1000F88F6E3F2A44B83E9ED86E3FC3CCB63E67
:103B2000B0206F3FEC54B53E30686F3FA5DCB33E2C
:103B30001BAF6F3FEF63B23E73F56F3FCBEAB03E12
:103B4000373B703F3A71AF3E6680703F3CF7AD3E09
:103B500002C5703FD47CAC3E0809713F0102AB3E08
:103B60007A4C713FC486A93E578F713F1F0BA83E08
:103B70009FD1713F128FA63E5213723F9F12A53EF6
:103B80007054723FC595A33EF894723F8718A23EC9
:103B9000EBD4723FE59AA03E4714733FDF1C9F3E73
:103BA0000E53733F789E9D3E3F91733FAF1F9C3EE7
:103BB000D9CE733F86A09A3EDD0B743FFE20993E1E
:103BC0004B48743F17A1973E2284743FD220963E03
:103BD00062BF743F31A0943E0BFA743F351F933E91
:103BE0001D34753FDD9D913E976D753F2C1C903EB9
:103BF0007BA6753F229A8E3EC6DE753FC0178D3E6E
:103C00007A16763F07958B3E974D763FF8118A3EA0
:103C10001B84763F938E883E07BA763FDA0A873E4A
:103C20005BEF763FCE86853E1724773F7002843E59
:103C30003A58773FC07D823EC58B773FC0F8803EC3
:103C4000B7BE773FE1E67E3E10F1773FA4DB7B3ED7
:103C5000D122783FCCCF783EF853783F5AC3753E97
:103C60008684783F51B6723E7BB4783FB2A86F3EEF
:103C7000D6E3783F7F9A6C3E9812793FBA8B693EC3
:103C8000C040793F667C663E4E6E793F836C633EF2
:103C9000439B793F135C603E9DC7793F1A4B5D3E65
:103CA0005EF3793F97395A3E841E7A3F8F27573EFD
:103CB00010497A3F0115543E02737A3FF101513E9B
:103CC000599C7A3F60EE4D3E16C57A3F4FDA4A3E28
:103CD00037ED7A3FC2C5473EBE147B3FB9B0443E84
:103CE000AB3B7B3F379B413EFC617B3F3E853E3E8D
:103CF000B2877B3FCF6E3B3ECDAC7B3FEC57383E2F
:103D00004DD17B3F9840353E31F57B3FD428323E44
:103D10007A187C3FA2102F3E283B7C3F04F82B3EB4
:103D20003A5D7C3FFCDE283EB07E7C3F8CC5253E64
:103D30008A9F7C3FB6AB223EC9BF7C3F7B911F3E32
:103D40006CDF7C3FDE761C3E73FE7C3FE05B193E01
:103D5000DD1C7D3F8340163EAC3A7D3FCA24133EB6
:103D6000DE577D3FB708103E74747D3F4AEC0C3E31
:103D70006E907D3F86CF093ECCAB7D3F6EB2063E56
:103D80008CC67D3F0295033EB1E07D3F4577003E06
:103D900038FA7D3F73B2FA3D24137E3FC075F43D7F
:103DA000722B7E3F7638EE3D23437E3F9AFAE73D05
:103DB000385A7E3F2EBCE13DB0707E3F377DDB3D03
:103DC0008B867E3FB93DD53DC99B7E3FB7FDCE3D3D
:103DD00069B07E3F36BDC83D6DC47E3F397CC23D73
:103DE000D4D77E3FC33ABC3D9DEA7E3FDAF8B53D6D
:103DF000C9FC7E3F80B6AF3D580E7F3FBA73A93DE8
:103E0000491F7F3F8C30A33D9D2F7F3FF9EC9C3DA8
:103E1000543F7F3F05A9963D6D4E7F3FB464903D72
:103E2000E95C7F3F0A208A3DC76A7F3F0ADB833D0A
:103E300008787F3F742B7B3DAB847F3F38A06E3D7D
:103E4000B1907F3F6814623D189C7F3F0E88553DBE
:103E5000E3A67F3F2FFB483D0FB17F3FD56D3C3D33
:103E60009EBA7F3F07E02F3D8FC37F3FCC51233D5C
:103E7000E2CB7F3F2CC3163D98D37F3F2F340A3DC2
:103E8000AFDA7F3FB949FB3C29E17F3F7B2AE23C27
:103E900005E77F3FB00AC93C43EC7F3F69EAAF3C8E
:103EA000E3F07F3FB6C9963CE6F47F3F4B517B3C45
:103EB0004AF87F3F900E493C11FB7F3F59CB163C9F
:103EC00039FD7F3F890FC93BC4FE7F3FC70F493B88
:103ED000B1FF7F3F000000000000803FC70F49BBDB
:103EE000B1FF7F3F890FC9BBC4FE7F3F59CB16BCD2
:103EF00039FD7F3F900E49BC11FB7F3F4B517BBC8E
:103F00004AF87F3FB6C996BCE6F47F3F69EAAFBC8A
:103F1000E3F07F3FB00AC9BC43EC7F3F7B2AE2BCA1
:103F200005E77F3FB949FBBC29E17F3F2F340ABD3C
:103F3000AFDA7F3F2CC316BD98D37F3FCC5123BD52
:103F4000E2CB7F3F07E02FBD8FC37F3FD56D3CBDE8
:103F50009EBA7F3F2FFB48BD0FB17F3F0E8855BDF6
:103F6000E3A67F3F681462BD189C7F3F38A06EBDFA
:103F7000B1907F3F742B7BBDAB847F3F0ADB83BD59
:103F800008787F3F0A208ABDC76A7F3FB46490BD2E
:103F9000E95C7F3F05A996BD6D4E7F3FF9EC9CBD66
:103FA000543F7F3F8C30A3BD9D2F7F3FBA73A9BD87
:103FB000491F7F3F80B6AFBD580E7F3FDAF8B5BDD1
:103FC000C9FC7E3FC33ABCBD9DEA7E3F397CC2BD81
:103FD000D4D77E3F36BDC8BD6DC47E3FB7FDCEBDD4
:103FE00069B07E3FB93DD5BDC99B7E3F377DDBBD06
:103FF0008B867E3F2EBCE1BDB0707E3F9AFAE7BD56
:10400000385A7E3F7638EEBD23437E3FC075F4BDFF
:10401000722B7E3F73B2FABD24137E3F457700BEFC
:1040200038FA7D3F029503BEB1E07D3F6EB206BE19
:104030008CC67D3F86CF09BECCAB7D3F4AEC0CBE23
:104040006E907D3FB70810BE74747D3FCA2413BEC6
:10405000DE577D3F834016BEAC3A7D3FE05B19BE24
:10406000DD1C7D3FDE761CBE73FE7C3F7B911FBE58
:104070006CDF7C3FB6AB22BEC9BF7C3F8CC525BE82
:104080008A9F7C3FFCDE28BEB07E7C3F04F82BBEBE
:104090003A5D7C3FA2102FBE283B7C3FD42832BE25
:1040A0007A187C3F984035BE31F57B3FEC5738BEDF
:1040B0004DD17B3FCF6E3BBECDAC7B3F3E853EBE00
:1040C000B2877B3F379B41BEFC617B3FB9B044BEAA
:1040D000AB3B7B3FC2C547BEBE147B3F4FDA4ABEF7
:1040E00037ED7A3F60EE4DBE16C57A3FF10151BE05
:1040F000599C7A3F011554BE02737A3F8F2757BEF1
:1041000010497A3F97395ABE841E7A3F1A4B5DBEDA
:104110005EF3793F135C60BE9DC7793F836C63BEDD
:10412000439B793F667C66BE4E6E793FBA8B69BE13
:10413000C040793F7F9A6CBE9812793FB2A86FBE9B
:10414000D6E3783F51B672BE7BB4783F5AC375BE92
:104150008684783FCCCF78BEF853783FA4DB7BBE13
:10416000D122783FE1E67EBE10F1773FC0F880BEF5
:10417000B7BE773FC07D82BEC58B773F700284BEDD
:104180003A58773FCE8685BE1724773FDA0A87BE36
:104190005BEF763F938E88BE07BA763FF8118ABEF2
:1041A0001B84763F07958BBE974D763FC0178DBE1B
:1041B0007A16763F229A8EBEC6DE753F2C1C90BEC4
:1041C0007BA6753FDD9D91BE976D753F351F93BEF4
:1041D0001D34753F31A094BE0BFA743FD22096BEB9
:1041E00062BF743F17A197BE2284743FFE2099BE20
:1041F0004B48743F86A09ABEDD0B743FAF1F9CBE38
:10420000D9CE733F789E9DBE3F91733FDF1C9FBE0A
:104210000E53733FE59AA0BE4714733F8718A2BEA2
:10422000EBD4723FC595A3BEF894723F9F12A5BE12
:104230007054723F128FA6BE5213723F1F0BA8BE5E
:104240009FD1713FC486A9BE578F713F0102ABBE9B
:104250007A4C713FD47CACBE0809713F3CF7ADBECF
:1042600002C5703F3A71AFBE6680703FCBEAB0BE08
:10427000373B703FEF63B2BE73F56F3FA5DCB3BE53
:104280001BAF6F3FEC54B5BE30686F3FC3CCB6BEBA
:10429000B0206F3F2A44B8BE9ED86E3F1EBBB9BE49
:1042A000F88F6E3FA031BBBEBE466E3FAFA7BCBE0F
:1042B000F2FC6D3F4A1DBEBE93B26D3F6F92BFBE12
:1042C000A1676D3F1E07C1BE1D1C6D3F557BC2BE61
:1042D00007D06C3F15EFC3BE5E836C3F5C62C5BE0A
:1042E00024366C3F29D5C6BE58E86B3F7C47C8BE14
:1042F000FB996B3F53B9C9BE0C4B6B3FAE2ACBBE8B
:104300008CFB6A3F8B9BCCBE7BAB6A3FEA0BCEBE7D
:10431000D95A6A3FCA7BCFBEA7096A3F2AEBD0BEF3
:10432000E4B7693F095AD2BE9165693F67C8D3BEF9
:10433000AE12693F4136D5BE3CBF683F99A3D6BE99
:10434000396B683F6B10D8BEA816683FB97CD9BEE0
:1043500087C1673F80E8DABED86B673FC153DCBED8
:104360009915673F79BEDDBECCBE663FA928DFBE8A
:104370007167663F4F92E0BE880F663F6AFBE1BE01
:1043800010B7653FFA63E3BE0B5E653FFECBE4BE4C
:104390007904653F7533E6BE59AA643F5D9AE7BE6E
:1043A000AC4F643FB700E9BE73F4633F8166EABE79
:1043B000AC98633FBBCBEBBE5A3C633F6330EDBE72
:1043C0007BDF623F7994EEBE1082623FFBF7EFBE67
:1043D0001A24623FEA5AF1BE98C5613F43BDF2BE5E
:1043E0008A66613F071FF4BEF206613F3580F5BE65
:1043F000CFA6603FCBE0F6BE2146603FC840F8BE86
:10440000E9E45F3F2DA0F9BE27835F3FF7FEFABEC8
:10441000DB205F3F275DFCBE05BE5E3FBBBAFDBE35
:10442000A65A5E3FB217FFBEBEF65D3F063A00BF1A
:104430004D925D3FE4E700BF532D5D3F739501BF93
:10444000D1C75C3FB14202BFC7615C3F9FEF02BF73
:1044500034FB5B3F3D9C03BF1A945B3F894804BF1C
:10446000792C5B3F84F404BF50C45A3F2CA005BF95
:10447000A05B5A3F824B06BF6AF2593F86F606BFE1
:10448000AD88593F36A107BF6A1E593F924B08BFFE
:10449000A1B3583F9BF508BF5348583F4E9F09BFF3
:1044A0007FDC573FAD480ABF2670573FB7F10ABFC0
:1044B0004803573F6B9A0BBFE595563FC9420CBF67
:1044C000FE27563FD0EA0CBF93B9553F81920DBFEE
:1044D000A44A553FDA390EBF31DB543FDBE00EBF53
:1044E0003B6B543F84870FBFC3FA533FD52D10BF9A
:1044F000C789533FCDD310BF4918533F6B7911BFC4
:1045000049A6523FB01E12BFC633523F9AC312BFD4
:10451000C2C0513F2A6813BF3D4D513F5F0C14BFCD
:1045200037D9503F39B014BFAF64503FB75315BFB0
:10453000A8EF4F3FD9F615BF1F7A4F3F9F9916BF7F
:1045400017044F3F073C17BF908D4E3F12DE17BF39
:1045500089164E3FC07F18BF029F4D3F0F2119BFE4
:10456000FD264D3F00C219BF79AE4C3F93621ABF82
:1045700078354C3FC6021BBFF8BB4B3F99A21BBF0F
:10458000FA414B3F0C421CBF7FC74A3F1FE11CBF93
:10459000874C4A3FD17F1DBF12D1493F221E1EBF0B
:1045A0002155493F12BC1EBFB3D8483F9F591FBF7A
:1045B000CA5B483FCBF61FBF65DE473F939320BFE2
:1045C0008560473FF92F21BF2AE2463FFBCB21BF41
:1045D0005463463F996722BF03E4453FD30223BF9C
:1045E0003964453FA99D23BFF5E3443F1A3824BFF2
:1045F0003763443F25D224BF00E2433FCB6B25BF46
:104600005160433F0A0526BF29DE423FE39D26BF96
:10461000895B423F563627BF70D8413F61CE27BFE6
:10462000E154413F056628BFDAD0403F41FD28BF35
:104630005C4C403F159429BF67C73F3F802A2ABF83
:10464000FC413F3F82C02ABF1BBC3E3F1B562BBFD5
:10465000C5353E3F4AEB2BBFF9AE3D3F0F802CBF27
:10466000B8273D3F69142DBF03A03C3F59A82DBF7B
:10467000D9173C3FDE3B2EBF3B8F3B3FF7CE2EBFD3
:1046800029063B3FA5612FBFA47C3A3FE6F32FBF2D
:10469000ACF2393FBB8530BF4268393F221731BF8A
:1046A00065DD383F1DA831BF1652383FAA3832BFEA
:1046B00055C6373FC9C832BF233A373F7A5833BF50
:1046C0007FAD363FBCE733BF6C20363F8F7634BFBB
:1046D000E792353FF30435BFF304353FE79235BF2A
:1046E0008F76343F6C2036BFBCE7333F7FAD36BF9B
:1046F0007A58333F233A37BFC9C8323F55C637BF10
:10470000AA38323F165238BF1DA8313F65DD38BF89
:104710002217313F426839BFBB85303FACF239BF09
:10472000E6F32F3FA47C3ABFA5612F3F29063BBF8C
:10473000F7CE2E3F3B8F3BBFDE3B2E3FD9173CBF12
:1047400059A82D3F03A03CBF69142D3FB8273DBF9A
:104750000F802C3FF9AE3DBF4AEB2B3FC5353EBF26
:104760001B562B3F1BBC3EBF82C02A3FFC413FBFB4
:10477000802A2A3F67C73FBF1594293F5C4C40BF42
:1047800041FD283FDAD040BF0566283FE15441BFD4
:1047900061CE273F70D841BF5636273F895B42BF65
:1047A000E39D263F29DE42BF0A05263F516043BFF5
:1047B000CB6B253F00E243BF25D2243F376344BF84
:1047C0001A38243FF5E344BFA99D233F396445BF10
:1047D000D302233F03E445BF9967223F546346BF9A
:1047E000FBCB213F2AE246BFF92F213F856047BF1F
:1047F0009393203F65DE47BFCBF61F3FCA5B48BFA0
:104800009F591F3FB3D848BF12BC1E3F215549BF17
:10481000221E1E3F12D149BFD17F1D3F874C4ABF88
:104820001FE11C3F7FC74ABF0C421C3FFA414BBFF0
:1048300099A21B3FF8BB4BBFC6021B3F78354CBF4C
:1048400093621A3F79AE4CBF00C2193FFD264DBF9F
:104850000F21193F029F4DBFC07F183F89164EBFE1
:1048600012DE173F908D4EBF073C173F17044FBF16
:104870009F99163F1F7A4FBFD9F6153FA8EF4FBF3C
:10488000B753153FAF6450BF39B0143F37D950BF4D
:104890005F0C143F3D4D51BF2A68133FC2C051BF4A
:1048A0009AC3123FC63352BFB01E123F49A652BF31
:1048B0006B79113F491853BFCDD3103FC78953BF00
:1048C000D52D103FC3FA53BF84870F3F3B6B54BFB6
:1048D000DBE00E3F31DB54BFDA390E3FA44A55BF4F
:1048E00081920D3F93B955BFD0EA0C3FFE2756BFCA
:1048F000C9420C3FE59556BF6B9A0B3F480357BF23
:10490000B7F10A3F267057BFAD480A3F7FDC57BF5B
:104910004E9F093F534858BF9BF5083FA1B358BF6E
:10492000924B083F6A1E59BF36A1073FAD8859BF59
:1049300086F6063F6AF259BF824B063FA05B5ABF1C
:104940002CA0053F50C45ABF84F4043F792C5BBFB0
:104950008948043F1A945BBF3D9C033F34FB5BBF17
:104960009FEF023FC7615CBFB142023FD1C75CBF4E
:104970007395013F532D5DBFE4E7003F4D925DBF4E
:10498000063A003FBEF65DBFB217FF3EA65A5EBFB5
:10499000BBBAFD3E05BE5EBF275DFC3EDB205FBFB0
:1049A000F7FEFA3E27835FBF2DA0F93EE9E45FBF23
:1049B000C840F83E214660BFCBE0F63ECFA660BFC0
:1049C0003580F53EF20661BF071FF43E8A6661BF7F
:1049D00043BDF23E98C561BFEA5AF13E1A2462BF58
:1049E000FBF7EF3E108262BF7994EE3E7BDF62BF41
:1049F0006330ED3E5A3C63BFBBCBEB3EAC9863BF2C
:104A00008166EA3E73F463BFB700E93EAC4F64BF12
:104A10005D9AE73E59AA64BF7533E63E790465BFE7
:104A2000FECBE43E0B5E65BFFA63E33E10B765BFA5
:104A30006AFBE13E880F66BF4F92E03E716766BF3A
:104A4000A928DF3ECCBE66BF79BEDD3E991567BFA3
:104A5000C153DC3ED86B67BF80E8DA3E87C167BFD1
:104A6000B97CD93EA81668BF6B10D83E396B68BFB9
:104A700099A3D63E3CBF68BF4136D53EAE1269BF52
:104A800067C8D33E916569BF095AD23EE4B769BF92
:104A90002AEBD03EA7096ABFCA7BCF3ED95A6ABF6C
:104AA000EA0BCE3E7BAB6ABF8B9BCC3E8CFB6ABFD6
:104AB000AE2ACB3E0C4B6BBF53B9C93EFB996BBFC3
:104AC0007C47C83E58E86BBF29D5C63E24366CBF2C
:104AD0005C62C53E5E836CBF15EFC33E07D06CBF02
:104AE000557BC23E1D1C6DBF1E07C13EA1676DBF39
:104AF0006F92BF3E93B26DBF4A1DBE3EF2FC6DBFCA
:104B0000AFA7BC3EBE466EBFA031BB3EF88F6EBFA6
:104B10001EBBB93E9ED86EBF2A44B83EB0206FBFC0
:104B2000C3CCB63E30686FBFEC54B53E1BAF6FBF11
:104B3000A5DCB33E73F56FBFEF63B23E373B70BF8A
:104B4000CBEAB03E668070BF3A71AF3E02C570BF1F
:104B50003CF7AD3E080971BFD47CAC3E7A4C71BFC6
:104B60000102AB3E578F71BFC486A93E9FD171BF72
:104B70001F0BA83E521372BF128FA63E705472BF15
:104B80009F12A53EF89472BFC595A33EEBD472BFA9
:104B90008718A23E471473BFE59AA03E0E5373BF19
:104BA000DF1C9F3E3F9173BF789E9D3ED9CE73BF61
:104BB000AF1F9C3EDD0B74BF86A09A3E4B4874BF6E
:104BC000FE20993E228474BF17A1973E62BF74BF36
:104BD000D220963E0BFA74BF31A0943E1D3475BFAF
:104BE000351F933E976D75BFDD9D913E7BA675BFCA
:104BF0002C1C903EC6DE75BF229A8E3E7A1676BF7A
:104C0000C0178D3E974D76BF07958B3E1B8476BFB0
:104C1000F8118A3E07BA76BF938E883E5BEF76BF67
:104C2000DA0A873E172477BFCE86853E3A5877BF8B
:104C30007002843EC58B77BFC07D823EB7BE77BF12
:104C4000C0F8803E10F177BFE1E67E3ED12278BF0A
:104C5000A4DB7B3EF85378BFCCCF783E868478BF08
:104C60005AC3753E7BB478BF51B6723ED6E378BF67
:104C7000B2A86F3E981279BF7F9A6C3EC04079BF50
:104C8000BA8B693E4E6E79BF667C663E439B79BFA8
:104C9000836C633E9DC779BF135C603E5EF379BF52
:104CA0001A4B5D3E841E7ABF97395A3E10497ABF2F
:104CB0008F27573E02737ABF0115543E599C7ABF25
:104CC000F101513E16C57ABF60EE4D3E37ED7ABF19
:104CD0004FDA4A3EBE147BBFC2C5473EAB3B7BBFEB
:104CE000B9B0443EFC617BBF379B413EB2877BBF7E
:104CF0003E853E3ECDAC7BBFCF6E3B3E4DD17BBFB4
:104D0000EC57383E31F57BBF9840353E7A187CBF72
:104D1000D428323E283B7CBFA2102F3E3A5D7CBF98
:104D200004F82B3EB07E7CBFFCDE283E8A9F7CBF11
:104D30008CC5253EC9BF7CBFB6AB223E6CDF7CBFB5
:104D40007B911F3E73FE7CBFDE761C3EDD1C7DBF6B
:104D5000E05B193EAC3A7DBF8340163EDE577DBF17
:104D6000CA24133E74747DBFB708103E6E907DBF99
:104D70004AEC0C3ECCAB7DBF86CF093E8CC67DBFD6
:104D80006EB2063EB1E07DBF0295033E38FA7DBFAC
:104D90004577003E24137EBF73B2FA3D722B7EBF6F
:104DA000C075F43D23437EBF7638EE3D385A7EBF52
:104DB0009AFAE73DB0707EBF2EBCE13D8B867EBF88
:104DC000377DDB3DC99B7EBFB93DD53D69B07EBF18
:104DD000B7FDCE3D6DC47EBF36BDC83DD4D77EBFC6
:104DE000397CC23D9DEA7EBFC33ABC3DC9FC7EBF53
:104DF000DAF8B53D580E7FBF80B6AF3D491F7FBF83
:104E0000BA73A93D9D2F7FBF8C30A33D543F7FBF18
:104E1000F9EC9C3D6D4E7FBF05A9963DE95C7FBFD7
:104E2000B464903DC76A7FBF0A208A3D08787FBF7F
:104E30000ADB833DAB847FBF742B7B3DB1907FBF8A
:104E400038A06E3D189C7FBF6814623DE3A67FBF0B
:104E50000E88553D0FB17FBF2FFB483D9EBA7FBFE7
:104E6000D56D3C3D8FC37FBF07E02F3DE2CB7FBFB9
:104E7000CC51233D98D37FBF2CC3163DAFDA7FBF03
:104E80002F340A3D29E17FBFB949FB3C05E77FBFCD
:104E90007B2AE23C43EC7FBFB00AC93CE3F07FBF12
:104EA00069EAAF3CE6F47FBFB6C9963C4AF87FBFDB
:104EB0004B517B3C11FB7FBF900E493C39FD7FBFBE
:104EC00059CB163CC4FE7FBF890FC93BB1FF7FBFE2
:104ED000C70F493B000080BF00000000B1FF7FBF4B
:104EE000C70F49BBC4FE7FBF890FC9BB39FD7FBF58
:104EF00059CB16BC11FB7FBF900E49BC4AF87FBF4F
:104F00004B517BBCE6F47FBFB6C996BCE3F07FBFD4
:104F100069EAAFBC43EC7FBFB00AC9BC05E77FBFFD
:104F20007B2AE2BC29E17FBFB949FBBCAFDA7FBF76
:104F30002F340ABD98D37FBF2CC316BDE2CB7FBFF1
:104F4000CC5123BD8FC37FBF07E02FBD9EBA7FBF6B
:104F5000D56D3CBD0FB17FBF2FFB48BDE3A67FBF22
:104F60000E8855BD189C7FBF681462BDB1907FBF8D
:104F700038A06EBDAB847FBF742B7BBD08787FBF2C
:104F80000ADB83BDC76A7FBF0A208ABDE95C7FBF99
:104F9000B46490BD6D4E7FBF05A996BD543F7FBFE1
:104FA000F9EC9CBD9D2F7FBF8C30A3BD491F7FBFF7
:104FB000BA73A9BD580E7FBF80B6AFBDC9FC7EBF16
:104FC000DAF8B5BD9DEA7EBFC33ABCBDD4D77EBF7B
:104FD000397CC2BD6DC47EBF36BDC8BD69B07EBF61
:104FE000B7FDCEBDC99B7EBFB93DD5BD8B867EBF0B
:104FF000377DDBBDB0707EBF2EBCE1BD385A7EBFB1
:105000009AFAE7BD23437EBF7638EEBD722B7EBF92
:10501000C075F4BD24137EBF73B2FABD38FA7DBFEC
:10502000457700BEB1E07DBF029503BE8CC67DBF53
:105030006EB206BECCAB7DBF86CF09BE6E907DBF83
:105040004AEC0CBE74747DBFB70810BEDE577DBF3E
:10505000CA2413BEAC3A7DBF834016BEDD1C7DBFA3
:10506000E05B19BE73FE7CBFDE761CBE6CDF7CBFCE
:105070007B911FBEC9BF7CBFB6AB22BE8A9F7CBFDF
:105080008CC525BEB07E7CBFFCDE28BE3A5D7CBFF1
:1050900004F82BBE283B7CBFA2102FBE7A187CBF21
:1050A000D42832BE31F57BBF984035BE4DD17BBF91
:1050B000EC5738BECDAC7BBFCF6E3BBEB2877BBF5B
:1050C0003E853EBEFC617BBF379B41BEAB3B7BBF99
:1050D000B9B044BEBE147BBFC2C547BE37ED7ABF70
:1050E0004FDA4ABE16C57ABF60EE4DBE599C7ABFF4
:1050F000F10151BE02737ABF011554BE10497ABF47
:105100008F2757BE841E7ABF97395ABE5EF379BF88
:105110001A4B5DBE9DC779BF135C60BE439B79BFD0
:10512000836C63BE4E6E79BF667C66BEC04079BF3D
:10513000BA8B69BE981279BF7F9A6CBED6E378BFEE
:10514000B2A86FBE7BB478BF51B672BE868478BFFA
:105150005AC375BEF85378BFCCCF78BED12278BF82
:10516000A4DB7BBE10F177BFE1E67EBEB7BE77BFA2
:10517000C0F880BEC58B77BFC07D82BE3A5877BF6E
:10518000700284BE172477BFCE8685BE5BEF76BFE4
:10519000DA0A87BE07BA76BF938E88BE1B8476BFB5
:1051A000F8118ABE974D76BF07958BBE7A1676BFEB
:1051B000C0178DBEC6DE75BF229A8EBE7BA675BF98
:1051C0002C1C90BE976D75BFDD9D91BE1D3475BFC3
:1051D000351F93BE0BFA74BF31A094BE62BF74BF7B
:1051E000D22096BE228474BF17A197BE4B4874BFCD
:1051F000FE2099BEDD0B74BF86A09ABED9CE73BFC8
:10520000AF1F9CBE3F9173BF789E9DBE0E5373BF70
:10521000DF1C9FBE471473BFE59AA0BEEBD472BFDC
:105220008718A2BEF89472BFC595A3BE705472BF12
:105230009F12A5BE521372BF128FA6BE9FD171BF1F
:105240001F0BA8BE578F71BFC486A9BE7A4C71BF11
:105250000102ABBE080971BFD47CACBE02C570BFF1
:105260003CF7ADBE668070BF3A71AFBE373B70BFD2
:10527000CBEAB0BE73F56FBFEF63B2BE1BAF6FBFBB
:10528000A5DCB3BE30686FBFEC54B5BEB0206FBFB5
:10529000C3CCB6BE9ED86EBF2A44B8BEF88F6EBFD0
:1052A0001EBBB9BEBE466EBFA031BBBEF2FC6DBF19
:1052B000AFA7BCBE93B26DBF4A1DBEBEA1676DBF96
:1052C0006F92BFBE1D1C6DBF1E07C1BE07D06CBF55
:1052D000557BC2BE5E836CBF15EFC3BE24366CBF68
:1052E0005C62C5BE58E86BBF29D5C6BEFB996BBFD3
:1052F0007C47C8BE0C4B6BBF53B9C9BE8CFB6ABFA1
:10530000AE2ACBBE7BAB6ABF8B9BCCBED95A6ABFE1
:10531000EA0BCEBEA7096ABFCA7BCFBEE4B769BF9E
:105320002AEBD0BE916569BF095AD2BEAE1269BFE1
:1053300067C8D3BE3CBF68BF4136D5BE396B68BFB6
:1053400099A3D6BEA81668BF6B10D8BE87C167BF29
:10535000B97CD9BED86B67BF80E8DABE991567BF44
:10536000C153DCBECCBE66BF79BEDDBE716766BF11
:10537000A928DFBE880F66BF4F92E0BE10B765BF99
:105380006AFBE1BE0B5E65BFFA63E3BE790465BFED
:10539000FECBE4BE59AA64BF7533E6BEAC4F64BF12
:1053A0005D9AE7BE73F463BFB700E9BEAC9863BF14
:1053B0008166EABE5A3C63BFBBCBEBBE7BDF62BFFC
:1053C0006330EDBE108262BF7994EEBE1A2462BFD4
:1053D000FBF7EFBE98C561BFEA5AF1BE8A6661BFAE
:1053E00043BDF2BEF20661BF071FF4BECFA660BF89
:1053F0003580F5BE214660BFCBE0F6BEE9E45FBF75
:10540000C840F8BE27835FBF2DA0F9BEDB205FBF79
:10541000F7FEFABE05BE5EBF275DFCBEA65A5EBFA4
:10542000BBBAFDBEBEF65DBFB217FFBE4D925DBFFB
:10543000063A00BF532D5DBFE4E700BFD1C75CBF94
:10544000739501BFC7615CBFB14202BF34FB5BBF54
:105450009FEF02BF1A945BBF3D9C03BF792C5BBFDB
:10546000894804BF50C45ABF84F404BFA05B5ABF2C
:105470002CA005BF6AF259BF824B06BFAD8859BF49
:1054800086F606BF6A1E59BF36A107BFA1B358BF33
:10549000924B08BF534858BF9BF508BF7FDC57BFEE
:1054A0004E9F09BF267057BFAD480ABF480357BF7C
:1054B000B7F10ABFE59556BF6B9A0BBFFE2756BFE3
:1054C000C9420CBF93B955BFD0EA0CBFA44A55BF1F
:1054D00081920DBF31DB54BFDA390EBF3B6B54BF35
:1054E000DBE00EBFC3FA53BF84870FBFC78953BF2A
:1054F000D52D10BF491853BFCDD310BF49A652BFF9
:105500006B7911BFC63352BFB01E12BFC2C051BFAC
:105510009AC312BF3D4D51BF2A6813BF37D950BF40
:105520005F0C14BFAF6450BF39B014BFA8EF4FBFBA
:10553000B75315BF1F7A4FBFD9F615BF17044FBF1A
:105540009F9916BF908D4EBF073C17BF89164EBF5F
:1055500012DE17BF029F4DBFC07F18BFFD264DBF93
:105560000F2119BF79AE4CBF00C219BF78354CBFAF
:1055700093621ABFF8BB4BBFC6021BBFFA414BBFB9
:1055800099A21BBF7FC74ABF0C421CBF874C4ABFB2
:105590001FE11CBF12D149BFD17F1DBF215549BF9B
:1055A000221E1EBFB3D848BF12BC1EBFCA5B48BF75
:1055B0009F591FBF65DE47BFCBF61FBF856047BF42
:1055C000939320BF2AE246BFF92F21BF546346BF01
:1055D000FBCB21BF03E445BF996722BF396445BFB8
:1055E000D30223BFF5E344BFA99D23BF376344BF64
:1055F0001A3824BF00E243BF25D224BF516043BF05
:10560000CB6B25BF29DE42BF0A0526BF895B42BF9F
:10561000E39D26BF70D841BF563627BFE15441BF36
:1056200061CE27BFDAD040BF056628BF5C4C40BFC3
:1056300041FD28BF67C73FBF159429BFFC413FBF4D
:10564000802A2ABF1BBC3EBF82C02ABFC5353EBFD1
:105650001B562BBFF9AE3DBF4AEB2BBFB8273DBF52
:105660000F802CBF03A03CBF69142DBFD9173CBFCE
:1056700059A82DBF3B8F3BBFDE3B2EBF29063BBF4A
:10568000F7CE2EBFA47C3ABFA5612FBFACF239BFC5
:10569000E6F32FBF426839BFBB8530BF65DD38BF39
:1056A000221731BF165238BF1DA831BF55C637BFAC
:1056B000AA3832BF233A37BFC9C832BF7FAD36BF21
:1056C0007A5833BF6C2036BFBCE733BFE79235BF93
:1056D0008F7634BFF30435BFF30435BF8F7634BF04
:1056E000E79235BFBCE733BF6C2036BF7A5833BF73
:1056F0007FAD36BFC9C832BF233A37BFAA3832BFE1
:1057000055C637BF1DA831BF165238BF221731BF4B
:1057100065DD38BFBB8530BF426839BFE6F32FBFB8
:10572000ACF239BFA5612FBFA47C3ABFF7CE2EBF24
:1057300029063BBFDE3B2EBF3B8F3BBF59A82DBF89
:10574000D9173CBF69142DBF03A03CBF0F802CBFED
:10575000B8273DBF4AEB2BBFF9AE3DBF1B562BBF51
:10576000C5353EBF82C02ABF1BBC3EBF802A2ABFB0
:10577000FC413FBF159429BF67C73FBF41FD28BF0C
:105780005C4C40BF056628BFDAD040BF61CE27BF62
:10579000E15441BF563627BF70D841BFE39D26BFB5
:1057A000895B42BF0A0526BF29DE42BFCB6B25BFFE
:1057B000516043BF25D224BF00E243BF1A3824BF43
:1057C000376344BFA99D23BFF5E344BFD30223BF82
:1057D000396445BF996722BF03E445BFFBCB21BFB6
:1057E000546346BFF92F21BF2AE246BF939320BFDF
:1057F000856047BFCBF61FBF65DE47BF9F591FBF00
:10580000CA5B48BF12BC1EBFB3D848BF221E1EBF12
:10581000215549BFD17F1DBF12D149BF1FE11CBF18
:10582000874C4ABF0C421CBF7FC74ABF99A21BBF0F
:10583000FA414BBFC6021BBFF8BB4BBF93621ABFF6
:1058400078354CBF00C219BF79AE4CBF0F2119BFCC
:10585000FD264DBFC07F18BF029F4DBF12DE17BF90
:1058600089164EBF073C17BF908D4EBF9F9916BF3C
:1058700017044FBFD9F615BF1F7A4FBFB75315BFD7
:10588000A8EF4FBF39B014BFAF6450BF5F0C14BF57
:1058900037D950BF2A6813BF3D4D51BF9AC312BFBD
:1058A000C2C051BFB01E12BFC63352BF6B7911BF09
:1058B00049A652BFCDD310BF491853BFD52D10BF35
:1058C000C78953BF84870FBFC3FA53BFDBE00EBF46
:1058D0003B6B54BFDA390EBF31DB54BF81920DBF31
:1058E000A44A55BFD0EA0CBF93B955BFC9420CBFFB
:1058F000FE2756BF6B9A0BBFE59556BFB7F10ABF9F
:10590000480357BFAD480ABF267057BF4E9F09BF17
:105910007FDC57BF9BF508BF534858BF924B08BF69
:10592000A1B358BF36A107BF6A1E59BF86F606BF8E
:10593000AD8859BF824B06BF6AF259BF2CA005BF84
:10594000A05B5ABF84F404BF50C45ABF894804BF47
:10595000792C5BBF3D9C03BF1A945BBF9FEF02BFD6
:1059600034FB5BBFB14202BFC7615CBF739501BF2F
:10597000D1C75CBFE4E700BF532D5DBF063A00BF4F
:105980004D925DBFB217FFBEBEF65DBFBBBAFDBE96
:10599000A65A5EBF275DFCBE05BE5EBFF7FEFABE1F
:1059A000DB205FBF2DA0F9BE27835FBFC840F8BED4
:1059B000E9E45FBFCBE0F6BE214660BF3580F5BEAF
:1059C000CFA660BF071FF4BEF20661BF43BDF2BEA3
:1059D0008A6661BFEA5AF1BE98C561BFFBF7EFBEA8
:1059E0001A2462BF7994EEBE108262BF6330EDBEAE
:1059F0007BDF62BFBBCBEBBE5A3C63BF8166EABEB6
:105A0000AC9863BFB700E9BE73F463BF5D9AE7BEAD
:105A1000AC4F64BF7533E6BE59AA64BFFECBE4BE8B
:105A2000790465BFFA63E3BE0B5E65BF6AFBE1BE46
:105A300010B765BF4F92E0BE880F66BFA928DFBED2
:105A4000716766BF79BEDDBECCBE66BFC153DCBE2A
:105A5000991567BF80E8DABED86B67BFB97CD9BE3D
:105A600087C167BF6B10D8BEA81668BF99A3D6BE02
:105A7000396B68BF4136D5BE3CBF68BF67C8D3BE6F
:105A8000AE1269BF095AD2BE916569BF2AEBD0BE7A
:105A9000E4B769BFCA7BCFBEA7096ABFEA0BCEBE17
:105AA000D95A6ABF8B9BCCBE7BAB6ABFAE2ACBBE3A
:105AB0008CFB6ABF53B9C9BE0C4B6BBF7C47C8BED9
:105AC000FB996BBF29D5C6BE58E86BBF5C62C5BEEB
:105AD00024366CBF15EFC3BE5E836CBF557BC2BE60
