:020000040800F2
:10000000503501206D020008A1160008991600085D
:100010009D16000805140008591D00080000000086
:1000200000000000000000000000000005180008AB
:10003000F914000800000000B9160008A51800080F
:10004000870200088702000887020008870200086C
:10005000870200088702000887020008870200085C
:10006000870200088702000887020008870200084C
:10007000870200088702000887020008870200083C
:1000800087020008870200087112000800000000C3
:1000900000000000000000000000000087020008CF
:1000A000870200088702000887020008870200080C
:1000B00089190008051A000887020008870200084D
:1000C00087020008870200088702000887020008EC
:1000D000870200088702000887020008000000006D
:1000E000870200088702000887020008000000005D
:1000F000000000000000000000000000870200086F
:10010000000000008702000887020008870200083C
:1001100000000000000000000000000000000000DF
:1001200035140008870200088702000887020008CB
:10013000870200080000000000000000000000002E
:10014000000000000000000000000000870200081E
:10015000870200088702000887020008870200085B
:10016000870200088702000800000000000000006D
:10017000000000000000000000000000000000007F
:1001800000000000870200080000000000000000DE
:1001900087020008870200084B1C012B98BF70479C
:1001A0002DE9F003911C9B08B1F80480B1F802908E
:1001B0000A8831F802CC8044814402448444D9F84E
:1001C0000070D8F800601568DCF80040C9F80060DD
:1001D000C8F80070CCF800501460D9F80470D8F852
:1001E00004605568DCF80440C9F80460C8F804707D
:1001F000CCF80450546008315B1ED5D1BDE8F00343
:1002000070474B1C012B98BF70472DE9F003911CE0
:100210009B08B1F80480B1F802900A8831F802CC4A
:1002200000EB580800EB590900EB520200EB5C0CA4
:10023000D9F80070D8F800601568DCF80040C9F8FB
:100240000060C8F80070CCF80050146008315B1EE4
:10025000DFD1BDE8F0037047DFF80CD000F034FFC9
:1002600000480047E1230008503501200648804738
:1002700006480047FEE7FEE7FEE7FEE7FEE7FEE78B
:10028000FEE7FEE7FEE7FEE7AD18000859020008AA
:100290009FED3D0A5FEA920C57D000BFD0ED000AF7
:1002A00090ED011A0B1D60EEA00A083041EE010A24
:1002B000F5EEC00AF1EE10FAC6BFB1EEE01A81ED1C
:1002C000001A81ED000AD0ED000A90ED011A191D07
:1002D00060EEA00A083041EE010AF5EEC00AF1EE28
:1002E00010FAC6BFB1EEE01A83ED001A83ED000AE2
:1002F000D0ED000A90ED011A0B1D60EEA00A083047
:1003000041EE010AF5EEC00AF1EE10FAC6BFB1EEF9
:10031000E01A81ED001A81ED000A90ED001AD0ED8F
:10032000010A191D21EE011A083000EEA01AB5EEDF
:10033000C01AF1EE10FAC6BFF1EEC10AC3ED000A11
:1003400083ED000ABCF1010CA8D112F0030208BF32
:10035000704700BFD0ED000A90ED011A0B4660EE29
:10036000A00A091D083041EE010AF5EEC00AF1EEBF
:1003700010FAC6BFB1EEE01A83ED001A83ED000A51
:10038000521EE7D170470000000000002DE9F04147
:1003900006462DED028B8C460088736801EB8004C5
:1003A0004508274601EB850004EB85025FEA9508C6
:1003B0007DD000BFD1ED003AD4ED001A91ED012AB5
:1003C00094ED013A73EEA16A91ED024A91ED031AA0
:1003D000D4ED022AD4ED035A90ED008A90ED017A13
:1003E00090ED020A90ED036A92ED005AD2ED014AB7
:1003F000D2ED027AD2ED030AC1ED006A72EE036A11
:1004000073EEE13A74EEC71AC1ED016A74EE226A26
:1004100074EE622A37EEC04AC1ED026A71EE256AB7
:10042000C1ED036A72EE436A31EE652A38EE051AB1
:1004300035EE483A80ED001A37EE241A80ED011AA5
:1004400030EE271A80ED021A36EE201A80ED031ADC
:1004500030EEC61A93ED000AD3ED010A63EE804A2E
:1004600026EEA05A66EE805A63EEA03A74EE854AF4
:1004700075EEE33AC4ED004A63EE204AC4ED013A5A
:1004800061EE803A61EEA00A23EE000A74EEE31AF0
:1004900030EE800AC2ED001A82ED010A93ED020AE5
:1004A000D3ED030A62EE803A22EE203A00E024E027
:1004B00062EEA01A22EE002A73EE832A1030103169
:1004C00072EE611AC4ED022A24EE202AC4ED031A4A
:1004D00061EE001A61EE200A24EE000A103332EEBB
:1004E000611A103430EE800A82ED021A82ED030A9E
:1004F0001032B8F101087FF45DAF2946022360464F
:10050000726800F041FB72682946BDEC028B3846E8
:10051000BDE8F041022300F037BB2DE9F34F2DED8C
:10052000048B87B00B980088470801EB870000EB2D
:10053000870606EB8705CDE90056DDF82C80A5F18E
:10054000040C0CEB8703CDE902014FEA5709D8F8F8
:1005500004800427CDE90497D1ED000A96ED000A46
:1005600090ED011A95ED013A70EE802A70EEC03AD6
:10057000D1ED010A96ED010A041F321F30EE802AE8
:1005800070EEC01A31EE230AD0ED000A32EE415A65
:1005900033EEC11A30EE434A71EEE04A95ED000A9F
:1005A00070EEA11A35EE435A74EE805A72EEE04AAC
:1005B00070EEA20A71EEC01A31EE031A74EEC04A50
:1005C00030EE800A062708F1080A81ED000A90ED56
:1005D000010AD5ED010A08F1100B30EE020A08F10C
:1005E000180830EE200A81ED010A80ED004AC0EDC6
:1005F000015AC6ED004A86ED015A85ED001AC5ED97
:10060000011ADDF810900830083108350836A9F1D4
:1006100002095FEA590900F0078100BFD1ED000A25
:1006200096ED000AD0ED011AD5ED014A30EE802A90
:1006300030EEC05AD1ED010A96ED010A70EE802A23
:1006400030EEC01A31EE850AD5ED000A30EE644A6C
:1006500090ED000A31EE403A30EE011A73EE205A66
:1006600032EE403A30EE020A31EE601A73EE603A32
:1006700030EE200A32EEE13A75EE611A81ED000AA1
:1006800090ED010AD5ED010A33EE643A30EE220A0C
:1006900071EEA41A30EE200A81ED010AD4ED002A91
:1006A000DCED004A54ED010A1CED010A32EEA47A99
:1006B00032EEE49A72EEE42A52ED018A70EE807A0C
:1006C00030EEC02A72EEE82AD2ED000A93ED000A5D
:1006D00013ED018A30EEC05A72EE886A77EEE82A8E
:1006E00035EE026A32EEC85A77EE602A72EEC04AE0
:1006F00070EEC02A70EE870A72EEC22A30EE800ACF
:1007000038EE682A84ED000A12ED010A53ED010A61
:1007100032EE492A30EE270A30EE200A04ED010AB3
:100720009AED000ADAED010A64EE007A25EEA07A6D
:1007300065EE805A24EE204A37EE877A35EEC44AB9
:1007400080ED007A80ED014A26EEA04A66EE005A5E
:1007500066EE200A26EE800A083034EE654A08313B
:1007600030EE800A82ED004A083C02ED010A9BED62
:10077000000ADBED010ADDF814E023EE804A63EEA7
:10078000205A23EE003A63EEA03A083A34EE254AA6
:100790000BEB8E0B33EE633A86ED004A0AF1080A42
:1007A00086ED013AB1EE643A083663EE003A25EE82
:1007B000203A25EE000A64EEA00A33EEC33A30EE8A
:1007C000C00A8CED003A0CED010A98ED000AD8ED54
:1007D000010A08EB870861EE803A21EE203A21EE0B
:1007E000001A61EEA01AACF1080C33EE833A31EE38
:1007F000611A85ED003A62EE801A85ED011A22EE4B
:10080000201A62EEA00A22EE000A083531EE611AC3
:1008100030EE800A83ED001A03ED010A083BB9F1BE
:1008200001097FF4FBAE00BFD1ED000A96ED000A8E
:1008300091ED011AD0ED015A30EE802A70EEC00A17
:1008400096ED010A95ED015A042371EE001A71EE3E
:10085000404A35EEA00A90ED001A31EEE54A70EEFE
:10086000E50A30EE453A95ED000A34EE454A30EEA1
:10087000855A74EEC12A72EE413A71EE240A31EEC5
:10088000021A72EE802A73EEC03A70EEC00A31EEA0
:10089000000A81ED000A90ED010A95ED011A30EE93
:1008A000210A30EE010A81ED010A9AED000A9AED63
:1008B000011A63EE001A22EE812A22EE800A23EE4C
:1008C000011A71EE821A30EE410AC0ED001A80ED75
:1008D000010A9BED000A9BED011A63EE801A24EEDB
:1008E000012A24EE000A23EE811A71EE821A30EEFC
:1008F000410AC6ED001A86ED010A98ED010A98ED4D
:10090000001A60EE801A25EE012A60EE810A25EEBB
:10091000000A32EE211A30EEC00A85ED001A85ED8C
:10092000010A0B984268DDE9030100F02DF90B98EC
:10093000042304994268029800F026F90B980423D6
:1009400004994268019800F01FF90B980499042358
:100950004268009807B0BDEC048B02B0BDE8F04FD0
:1009600000F012B92DE9F0410488984617460D466B
:100970000646012A20D1281DF4B1A0F1080114F087
:10098000010F06D091ED020AB1EE400A81ED020A94
:1009900008315FEA540C0FD091ED020AB1EE400A23
:1009A00081ED020A91ED040AB1EE400A81ED040ADC
:1009B0001031BCF1010CEFD1B4F5807F1BD008DC05
:1009C000102C13D0202C16D0402C19D0802C0DD0F8
:1009D0001CE0B4F5007F13D0B4F5806F06D0B4F5F9
:1009E000006F08D0B4F5805F0AD00FE0294630468A
:1009F000FFF7CCFC0AE029463046FFF78EFD05E004
:100A0000214601232846726800F0BEF8B8F1000FB5
:100A100004D0B1892846B268FFF7BEFB012F18BF8A
:100A2000BDE8F08100EE104AB7EE001A002CF8EE97
:100A3000400A81EE200A08BFBDE8F081A5F1080058
:100A400014F0010F0ED0D0ED020A60EE800AC0ED66
:100A5000020AD0ED030AF1EE600A60EE800AC0EDF2
:100A6000030A0830610808BFBDE8F081D0ED020A32
:100A700060EE800AC0ED020AD0ED030AF1EE600AD2
:100A800060EE800AC0ED030AD0ED040A60EE800A31
:100A9000C0ED040AD0ED050AF1EE600A60EE800AAE
:100AA000C0ED050A1030491EE0D1BDE8F08100001C
:100AB00070B44FF0000CB0EC010A4E1E6446B5084D
:100AC00031D000BFD0ED000A90ED011A0830B4EE2D
:100AD000E00AF1EE10FA3CBFB0EE600A0CF101043E
:100AE000F0EC010AB4EEC10AF1EE10FA3CBFB0EE30
:100AF000410A0CF10204B0EC011AB4EEE00AF1EE86
:100B000010FA3CBFB0EE600A0CF10304B4EEC10A67
:100B1000F1EE10FA3CBFB0EE410A0CF104046D1E78
:100B20000CF1040CCED106F0030C5FEA0C0617D0D2
:100B3000B6F1004F19D2002EC8BF002510DD00BF4E
:100B4000D0ED000AF4EEC00AF1EE10FA04DD4C1903
:100B5000B0EE600AA4EB0C04001D6D1C761EEFD1F4
:100B600082ED000A1C6070BC7047F0EC010AB4EE24
:100B7000E00AF1EE10FA3CBFB0EE600AA1EB0C0403
:100B8000BCF1010CF1D1EBE72DE9FF4F2DED108BFE
:100B900082B09FEDFEFA0B461C46DB084FF0000CBE
:100BA0000CEB030505EB030808EB030909EB03064F
:100BB00006EB030A00EBCC0700EBC60697ED001A24
:100BC000D6ED000A0AEB030B00EBC50500EBCA0AE1
:100BD00031EE200A71EE601A95ED002ADAED000A76
:100BE0000BEB030E00EBC80832EE201A00EBCB0B28
:100BF00032EE602AD8ED002ADBED000A00EBC909CD
:100C000000EBCE0E99ED003A9EED004A72EEA03A4E
:100C100072EEE02A73EE040A33EE443A70EE636A31
:100C200070EE233A31EE600A71EE200A33EEA01A1C
:100C300073EEE00A87ED001AC6ED000A97ED011A7F
:100C4000D6ED010AD5ED013A98ED014A31EE206A60
:100C500071EE600A9AED011A99ED015A73EE814A1C
:100C600073EEC13A9BED011A34EE017A34EE411A6B
:100C70009EED014A75EE045A35EE444A36EE475A67
:100C800036EE076A34EEE57A74EEA54A76EE245A1B
:100C900076EE644AC7ED015AC6ED014A76EE874A00
:100CA000C8ED004A76EEC74ACBED004A75EE404AE1
:100CB00035EE000AC8ED014A8BED010A32EE430A17
:100CC00032EE032A20EE0F0A62EE0F4A33EEC42AF8
:100CD000A4448C4522EE0F3A33EE842A30EEC34A08
:100CE00062EE0F3A30EE833A31EEC02A31EE800ADE
:100CF00071EE630A31EE231A72EEE41A72EEA42A40
:100D000070EE013A30EE410AC5ED003A8EED000A70
:100D100032EE200A8AED000A32EE600A89ED000AFE
:100D200033EE620A85ED010A33EE220A8EED010AE6
:100D300034EE610A8AED010A34EE210A89ED010AD6
:100D4000FFF42EAF082B3FBF02B0BDEC108B04B0F8
:100D5000BDE8F08F4FF0000CCDF804C04FF0010C4F
:100D6000CDF800C0DDF804C0159DAC444FEA8C05F9
:100D700005EB0C07CDF804C007EB0C094FEA4C0853
:100D800008EB0C0609EB0C0A02EBCC0C02EBC808D2
:100D900002EBC60602EBC50502EBC70702EBC90969
:100DA00002EBCA0A9CED00DA9CED018AD8ED00CA7C
:100DB00096ED00CAD5ED00BA97ED00BAD9ED00AABC
:100DC000DAED008AD8ED017A96ED01AA95ED017A67
:100DD000D7ED016A99ED016ADAED019ADDF800C0FC
:100DE0000CEB0307FD1805EB030A0AEB030808EBFD
:100DF000030606EB030B00EBCC0900EBC808D9EDAA
:100E0000000A98ED000A00EBC70700EBC606D7ED15
:100E1000001A96ED001A70EE803A0BEB030E70EE9E
:100E2000C00A31EE810A00EBC50500EBCB0B31EEB9
:100E3000C11AD5ED001A9BED002A00EBCA0A00EB9F
:100E4000CE0E31EE824A71EEC21A9AED002ADEED24
:100E5000002A32EE223A32EE622A73EEC42A73EE90
:100E6000843A30EE435A30EE030A33EE803A73EEA2
:100E7000C0DA89ED003A99ED010A98ED013AD7ED13
:100E8000013A95ED014A70EE03EA30EE433A96EDF1
:100E9000010A9AED01EADEED014A33EE809A73EE23
:100EA000C03A9BED010A74EE005A34EE404A3EEE21
:100EB000240A7EEE644A3EEEE5EA7EEEA55A79EE1D
:100EC00040EA39EE009A32EEAE0A72EEEE2A75EE84
:100ED00089EA35EEC99A7EEE455AC9ED01EA3EEE41
:100EE000055A2BEEADEA67EE09EA2BEE899A67EE1A
:100EF0002DDA3EEE2EEA39EE6D9A88ED00EA67EEC5
:100F0000A5DA88ED019A2CEE809A6CEEA55A27EEB0
:100F1000800A39EE2D9A35EEC00A85ED009A66EE0C
:100F2000055A85ED010A2AEEA20A2AEE855A66EED6
:100F3000222A30EE250A8BED000A35EE620A73EEA6
:100F4000A42A8BED010A31EE420A31EE021A33EE89
:100F5000E42A62EE8F3A20EE0F0A21EE0F1A22EEFB
:100F60000F2A70EEC02A30EE800A71EEC10A71EECF
:100F7000811A33EE421A33EE022A34EE633A34EE2B
:100F8000234A70EE043A30EE444A01E0F304353F60
:100F900072EE834A72EEC32A32EE613A32EE210AD1
:100FA00071EE601A71EE200A2DEE232A28EE031A44
:100FB0002DEE033A68EE233AA44432EE011A28EEED
:100FC000842A8C4587ED001A33EE631A29EE843AA1
:100FD00087ED011A29EE801A28EE800A32EE011AF6
:100FE00030EE430A26EEA42A8EED001A8EED010A99
:100FF0002BEE240A26EEA11A6BEE211A30EE010A1E
:101000002CEE221A86ED000A31EEC20A6AEE221A8E
:1010100086ED010A2AEE200A6CEE200A31EE000A63
:101020008AED000A30EEE10A8AED010AFFF4D8AE3B
:10103000DDF800C00CF1010CCDF800C063453FF6AF
:1010400091AEDDF854C04FF6FF7404EACC0CCDF835
:1010500054C0072B3FF6A0AD02B0BDEC108B04B01E
:10106000BDE8F08F2DE9F05F0546002092469B46D3
:1010700088460646814640241BE0284641464746AE
:10108000224600F042F853465A46C01A914110D306
:1010900011461846224600F029F82D1A67EB010880
:1010A0004F4622460120002100F020F817EB0009EE
:1010B0004E41201EA4F10104DFDC484631462A4699
:1010C0004346BDE8F09F0000064C074D06E0E0688F
:1010D00040F0010394E8070098471034AC42F6D37F
:1010E000FFF7BEF83458000854580008202A04DBE3
:1010F000203A00FA02F1002070479140C2F120032B
:1011000020FA03F3194390407047202A04DB203A69
:1011100021FA02F00021704721FA02F3D040C2F117
:1011200020029140084319467047CA430260704745
:1011300000220A12D3430360704721B1826842F053
:101140000102826003E0826822F00102826070473F
:101150000021084A1168084A1140D0E900231A43C7
:1011600083681A43C3681A431143044AC2F804133C
:101170007047000004230140E030FCFF00200140E4
:1011800000B58DB00121084600F098FA012108024F
:1011900000F0B4FA0820019003208DF80800002028
:1011A0008DF80B0001A9204800F002FA20200190E0
:1011B00003208DF8080000208DF80B0001A91A48C3
:1011C00000F0F6F90020039004900590069003A823
:1011D000FFF7BEFF002007908DF820008DF821005A
:1011E0004FF08050099040100A9000200B90012091
:1011F0008DF8300007A90D4800F07EF801231A464B
:1012000003210A4800F0A2F8012240F20521074814
:1012100000F062F8122000F044FA01210348FFF7C1
:101220008CFF0DB000BD0000000002400020014016
:1012300000200249886008604860704784000020F0
:101240000146C86C80B2704770B50246002000238A
:1012500000240B12556801268E4005EA0604156825
:101260001D4015B10CB1012000E0002070BD000050
:1012700010B516480068401C1449086040F205216A
:101280001348FFF7E1FF00B340F205211048FFF7D4
:101290004FFF02210E48FFF748FF0D48FFF7D0FF30
:1012A000044600F0DFFF0B4841680C3000EB810082
:1012B00080ED000A07488068401C0649886008469F
:1012C0004068401CC0F30D00486010BD14000020B1
:1012D000002001408400002010B50B460021D9B247
:1012E000012404FA01F11AB144680C43446002E09D
:1012F00044688C43446010BD30B502460020002392
:101300005068104C20400D790C6844EA05242043B5
:10131000506090680C4C2040D1E903542C438D68F8
:101320002C434D7944EA450420439060D06A20F470
:1013300070000C7D641EE4B2234340EA0350D06287
:1013400030BD0000FFFEFFFCFDF7FFC0F0B5044616
:101350000D4600200021092D11DDE068A5F10A06E7
:1013600006EB4607072606FA07F18843A5F10A06A9
:1013700006EB460603FA06F10843E0600CE020693C
:1013800005EB4507072606FA07F1884305EB4506F6
:1013900003FA06F108432061072A0FDA606B561E34
:1013A00006EB86071F2606FA07F18843561E06EB52
:1013B000860605FA06F10843606322E00D2A0FDA7B
:1013C000206BD61F06EB86071F2606FA07F1884317
:1013D000D61F06EB860605FA06F10843206310E0E7
:1013E000E06AA2F10D0606EB86071F2606FA07F152
:1013F0008843A2F10D0606EB860605FA06F10843BE
:10140000E062F0BD00BFFEE700200CE0074901EB01
:10141000800191ED000A0649D1ED000A20EE200A74
:1014200081ED000A401C0628F0D37047FC29000813
:101430006400002010B50749074800F02BF838B1C8
:101440000449054800F00CF80449034800F008F886
:1014500010BD0000208000101064024010400010F9
:101460000246094B9A4201D2084801E0064810386A
:1014700001F000531BB1064B0B40C36002E0044B6C
:101480000B4083607047000010640240006002401F
:101490007D0F7D0F70B50246002000240025124EFE
:1014A000B24201D2114B01E00F4B103B104E0E40E7
:1014B00036B11E2606EAD124166806EA040502E0C3
:1014C000566906F0800501F000560EB15C6800E038
:1014D0001C68084E344004EA010616B10DB1012023
:1014E00000E0002070BD0000106402400060024077
:1014F0003C0F3C0F7D0F7D0F704700001CB5012194
:10150000082000F0DBF80121022000F0D7F80121CB
:10151000084600F0D3F80220009001208DF8040066
:101520008DF807006946204800F042F802211E4865
:1015300000F0ABF80420009002208DF80400002099
:101540008DF8060001208DF807006946164800F066
:101550002FF801220221144800F072F88020009038
:1015600001208DF804008DF8070069460E4800F050
:101570001FF843F20300009001208DF804008DF85D
:1015800007006946094800F013F843F203010748D1
:1015900000F079F80221054800F077F84FF4805107
:1015A000024800F072F81CBD000002400004024036
:1015B000F0B50A4600210023002400BF3DE00125CC
:1015C00005FA01F3156805EA03049C4234D1056865
:1015D0004F000326BE40B543056015794E00B54067
:1015E0000668354305601579012D02D01579022D65
:1015F00016D185684F000326BE40B54385605579F6
:101600004E00B540866835438560456801268E40AA
:10161000B5434560456896798E40B6B2354345601E
:10162000C5684F000326BE40B543C560D5794E005E
:10163000B540C6683543C560491C1029BFD3F0BD0D
:10164000F0B5002300244D07ED0E02FA05F3CE108D
:1016500000F1200555F826504E07F70E0F26BE4024
:10166000B543CF1000F1200646F82750CE1000F108
:10167000200555F8265045EA0304CE1000F1200558
:1016800045F82640F0BD41837047018370470AB199
:10169000018300E04183704700BFFEE700BFFEE723
:1016A000704700F01F02012191404209920002F1AF
:1016B000E022C2F8001170477047000029B1064AC5
:1016C00012680243044B1A6004E0034A1268824322
:1016D000014B1A60704700003038024029B1064AB9
:1016E00012680243044B1A6004E0034A1268824302
:1016F000014B1A60704700004038024029B1064A89
:1017000012680243044B1A6004E0034A12688243E1
:10171000014B1A607047000044380240F0B50021C8
:1017200000220024022500260223324F3F6807F0E2
:101730000C0121B1042905D0082937D105E02E4F2D
:10174000076036E02D4F076033E02A4F3F1F3F68A8
:10175000C7F38056274F3F1F3F6807F03F036EB126
:10176000264FB7FBF3F7DFF88CC0ACF1040CDCF8C4
:1017700000C0CCF3881C07FB0CF40CE01E4FB7FB39
:10178000F3F7DFF870C0ACF1040CDCF800C0CCF368
:10179000881C07FB0CF4174F3F1F3F68C7F3014736
:1017A0007F1C7D00B4FBF5F7076002E0124F076075
:1017B00000BF00BF0F4F3F6807F0F0010909104F4D
:1017C0007A5C0768D74047600A4F3F6807F4E051EA
:1017D000890A0B4F7A5C4768D7408760054F3F689E
:1017E00007F46041490B064F7A5C4768D740C760F1
:1017F000F0BD0000083802400024F40040787D016C
:1018000070000020704700002248006840F08050BF
:10181000204908602048006840F440401E490860A4
:101820001C48383800681B49383908600846006889
:1018300008600846006840F4805008601748091F97
:101840000860081F006840F08070091F086000BF32
:1018500010484038006800F000700028F8D040F2CE
:1018600002700F4908600B483838006820F0030008
:101870000849383908600846006840F002000860EE
:1018800000BF04483838006800F00C000828F8D180
:1018900070470000403802400070004010640107AB
:1018A000003C024010B500F073F910BD10B51548AA
:1018B000006840F47000134908601348006840F065
:1018C00001001149086000200F49083108600E48E6
:1018D00000680E4908400C4908600D48091D086061
:1018E000081F006820F48020091F086000200649B6
:1018F0000C310860FFF788FF4FF000600149803924
:10190000086010BD88ED00E000380240FFFFF6FEE1
:101910001030002410B588B001210846FFF7DEFE24
:101920000024174800681749B0FBF1F0441E05A8D1
:1019300000F024F99B200690A0B2ADF8140000201E
:10194000ADF81C00ADF8160005A94FF0804000F07E
:10195000D3F86020ADF800000120ADF802004D2062
:1019600002900020ADF80C0069464FF0804000F076
:1019700069F80121880700F050F808B010BD000098
:101980000000002040420F0010B50121880700F040
:1019900041F810BD3EB501210220FFF79FFE002453
:1019A000154800681549B0FBF1F0441E684600F088
:1019B000E5F84FF4C3700190A0B2ADF8000000202C
:1019C000ADF80800ADF8020069460D4800F094F843
:1019D00020210B4800F086F801221146084800F04B
:1019E00028F81220FFF75DFE1D20FFF75AFE0121A7
:1019F000034800F012F83EBD00000020A086010060
:101A00000004004010B50121014800F003F810BDAA
:101A100000040040CA430282704721B1028842F0AC
:101A20000102028004E002884FF6FE731A40028031
:101A300070471AB183890B43838102E083898B430A
:101A40008381704770B5002400220023058C4FF677
:101A5000FF6635400584028C8388848B4FF68F7532
:101A60002C404FF6FC752C400D882C434FF6FF554B
:101A70002A408D894FF6FF7606EA05252A434D88D0
:101A800006EA05252A43154DA84202D0144DA84266
:101A90001DD14FF2FF752A40CD894FF6FF7606EA39
:101AA00005252A434FF6FF352A408D8806EA05258D
:101AB0002A434EF6FF752B404DF6FF752B400D8ADD
:101AC00006EA05152B434D8A06EA05152B4383804C
:101AD00084838D68C563028470BD000000000140EE
:101AE0000004014082884FF68F731A4082808288FA
:101AF0000A4382807047000000220288184B9842F7
:101B00000ED0184B98420BD0B0F1804F08D0164B36
:101B1000984205D0154B984202D0154B984204D1FB
:101B20004FF68F731A404B881A43124B984207D0D6
:101B3000114B984204D04FF6FF431A400B891A43C9
:101B400002804B68C3620B880385054B984202D024
:101B5000044B984201D18B7A03860123838270471C
:101B60000000014000040140000400400008004063
:101B7000000C004000100040001400404FF0FF3106
:101B80004160002101800181418081727047000025
:101B90000448006820B103480068401E01490860FD
:101BA000704700001800002021B1828942F40052E1
:101BB000828104E082894DF6FF731A40828170476A
:101BC00000B587B001210846FFF778FD0121082004
:101BD000FFF774FD01211020FFF790FD0722092176
:101BE0001D48FFF72DFD07220A211B48FFF728FD9E
:101BF00000208DF80A0001208DF80B0002208DF8DE
:101C000008000002019002208DF8090001A9124885
:101C1000FFF7CEFC02208DF808004002019001A9D8
:101C20000D48FFF7C5FC4FF4E13003900020ADF8FC
:101C30001000ADF81200ADF81400ADF818000C203B
:101C4000ADF8160003A9054800F018F80121034873
:101C5000FFF7AAFF07B000BD0000024000100140DE
:101C600002460020B1F5007F00D100BF13880B4071
:101C70000BB1012000E00020704700002DE9FF4774
:101C800005460E460024A14600BFA046B08900B11B
:101C900000BF2C8A24F44054F08804432C82AC8981
:101CA00041F20C608443B08831890843718908434C
:101CB0000443AC81AC8A24F44074B0890443AC8200
:101CC0006846FFF72BFD2048854202D01F48854219
:101CD00002D1DDF80C9001E0DDF80890A88900F44D
:101CE000004040B109EBC90000EB09103168490020
:101CF000B0FBF1F707E009EBC90000EB0910316810
:101D00008900B0FBF1F76420B7FBF0F00401200973
:101D1000642101FB1078A88900F4004040B1322012
:101D200000EBC800B0FBF1F000F00700044308E04E
:101D3000322000EB08106421B0FBF1F000F00F003E
:101D400004432C81BDE8FF870010014000140140CE
:101D5000C1F308028280704700BFFEE70FB4054B55
:101D600010B503A9044A029800F018F810BC5DF8F9
:101D700014FB0000412200088000002002E008C897
:101D8000121F08C1002AFAD170477047002001E0F5
:101D900001C1121F002AFBD1704700002DE9FF4F3F
:101DA0008DB00F460546002606E025280BD0DDE95C
:101DB0000F1290476D1C761C28780028F5D111B0C1
:101DC0003046BDE8F08F0024A246A1460122EC492E
:101DD00000E0044315F8013F203B02FA03F00842FB
:101DE000F7D128782A2810D06FF02F022878A0F198
:101DF0003001092914D80AEB8A0102EB410144F0B1
:101E0000020400EB010A6D1CF0E701CF5FEA000A53
:101E100003D544F40054CAF1000A44F002046D1CD6
:101E200028782E2817D115F8010F44F004042A2829
:101E30000ED06FF02F022878A0F1300109290AD8BE
:101E400009EB890102EB410100EB01096D1CF2E78E
:101E500057F8049B6D1C28786C280FD006DC4C28A2
:101E600017D068280DD06A2814D104E0742810D047
:101E70007A280FD10DE044F400140AE044F48014F1
:101E800001E044F440146978814202D104F58014E1
:101E90006D1C6D1C2A786E2A1FD00CDC632A31D091
:101EA00004DC002A8BD0582A11D1A3E0642A68D020
:101EB000692A0CD165E0732A2ED004DC6F2A73D016
:101EC000702A04D19BE0752A6FD0782A6ED0104614
:101ED000DDE90F129047761C50E1C4F3025002284E
:101EE00006D0032809D0042801CF09D0066045E1B7
:101EF00001CFF117C0E9006140E101CF06803DE16B
:101F000006703BE117F8040B8DF8000000208DF8F7
:101F10000100EB46012003E057F804BB4FF0FF300F
:101F200061074FF0000102D40DE008F1010188467D
:101F300049450FDA8045F8DB1BF808100029F4D179
:101F400008E008F1010188468142FADB1BF808101D
:101F50000029F6D1DDE90F23AAEB080081462146CE
:101F600000F036F9304400EB080604E0DDE90F121A
:101F70001BF8010B9047B8F10108F7D221464846FB
:101F8000F7E00A21C4F302534FF0000B0891022B33
:101F900004D001CFC117032B09D00AE0FF1D27F0A1
:101FA0000707F7E8020108E032E01FE020E000B296
:101FB000C117042B01D140B2C117031E71F10003F8
:101FC00007DA4FF0000CD0EB0C006CEB01012D2375
:101FD00002E0230504D52B238DF82430012303E0F0
:101FE000E30701D02023F7E7984658E00A2110E0E4
:101FF00010210EE010204FF0000B08900CE0102193
:102000004FF0000B44F004044FF00809089103E07E
:1020100008214FF0000B0891C4F30253022B04D0A7
:1020200001CF0021032B06D006E0FF1D27F0070794
:10203000F7E8020103E080B2042B00D1C0B24FF0F8
:10204000000823072BD5702A07D0DDF820C08CF0BC
:10205000100C5CEA0B0C05D00EE040238DF8243008
:10206000012308E050EA010306D030238DF8243024
:102070008DF8252002239846DDF820C08CF0080C4E
:102080005CEA0B0C0BD150EA010301D1630706D5C2
:1020900030238DF824304FF00108A9F10109582AA6
:1020A00004D038A20B9208AA0A920BE03AA2F9E7F0
:1020B0005B46089AFEF7D6FF0B9B9B5C0A9A521E62
:1020C0000A92137050EA0102F2D10A98ADEB0000B7
:1020D00000F1200B600702D524F4803401E04FF0BA
:1020E0000109D94502DDA9EB0B0000E0002000EB5F
:1020F0000B0141440890AAEB010AE00306D4DDE994
:102100000F232146504600F063F806444FF00009C3
:1021100008E009A911F80900DDE90F12904709F15B
:102120000109761CC145F4DBE0030CD5DDE90F2382
:102130002146504600F04CF8064404E0DDE90F1259
:1021400030209047761C0899481E08900029F5DC3D
:1021500008E00A980A990078491C0A91DDE90F12F3
:102160009047761CBBF10001ABF1010BF1DC21467D
:102170005046DDE90F2300F019F806446D1C1BE6FC
:10218000092801003031323334353637383961624D
:102190006364656600000000303132333435363711
:1021A0003839414243444546000000002DE9F041E2
:1021B000044600251E461746880404D405E0394627
:1021C0002020B0476D1C641EF9D52846BDE8F0817B
:1021D0002DE9F041044600251E469046C80301D56E
:1021E000302700E02027880404D505E04146384622
:1021F000B0476D1C641EF9D52846BDE8F08100008B
:1022000010B50123002209490948FEF7ABFB4FF442
:10221000806208490548FEF73BF8074B074A40F241
:10222000FF110448001DFEF743FC10BD9000012083
:10223000142A000890200120400000205C000020AB
:1022400070B504460D46E1B20548FFF781FD00BFB9
:1022500040210348FFF704FD0028F9D0204670BD57
:10226000001001400146002000EE901AF8EE600ACE
:1022700000EB4002564B03EB8202C2ED000A97E0EE
:1022800000EB4002524B03EB8202D2ED000A00EB5E
:102290004002504B03EBC20292ED001A60EE810A3D
:1022A00000EB40024A4B03EB820292ED011A00EB75
:1022B0004002484B03EBC202D2ED011A41EE210A63
:1022C00000EB4002424B03EB820292ED021A00EB5C
:1022D0004002404B03EBC202D2ED021A41EE210A4A
:1022E00000EB40023C4B03EB820292ED011A00EB43
:1022F0004002384B03EBC202D2ED041A41EE610AF0
:1023000000EB4002344B03EB820292ED021A00EB29
:102310004002304B03EBC202D2ED051A41EE610AD6
:1023200000EB40022C4B03EB8202C2ED000A00EBF3
:102330004002274B03EB8202D2ED010A00EB400280
:1023400003EB8202C2ED020A00EB400203EB8202C1
:10235000D2ED000A00EB400203EB8202C2ED010A5B
:1023600000EB40021C4B03EB8202D2ED010A00EBB2
:10237000400203EB8202C2ED020A00EB400203EBD3
:102380008202D2ED000A00EB400203EB8202C2EDB2
:10239000010A00EB400203EB8202D2ED000A421C6C
:1023A00002EB42020A4B03EB8202C2ED000A401C20
:1023B0000628FFF465AF00EB4002054B03EB8202F9
:1023C000D2ED000A054A92ED001A20EE810A70470C
:1023D000903001206C290008F030012064000020BA
:1023E000FFF78CF801220221FC48FFF750F9FFF7B4
:1023F000E7FBFFF7CFFAFFF78DFAFEF7C1FEFFF715
:1024000003F8F7480168F7A0FFF7A8FC0020FE4991
:102410000860FEA0FFF7A2FC002405E0F048016878
:10242000F0A0FFF79BFC641CFF2CF7D90221EB48BE
:10243000FFF729F900BF00249FEDF90AF94880ED64
:10244000000A0020F8490860FEF7F2FE29E040206B
:1024500000F028FAFFF7D4FEF4480068992819D351
:10246000F2480068A32815D8F14890ED000AED481D
:10247000D0ED000AB4EEE00AF1EE10FA09DDEC4806
:1024800090ED000AE74880ED000AEA480068E64956
:102490000860641C082C00D304E00221012000F035
:1024A0003FFAD4E700BFE3480068DF4A1268811AA8
:1024B000002000F035FA4021012000F031FA00241C
:1024C0000020DD4908600860DC490860CE490860EA
:1024D000DB490860DFE1402000F0E4F9FFF790FEFF
:1024E000D248006839282ED3D048006843282AD81B
:1024F000D2480068062818D2D0480068C0F105010B
:1025000000208840CC4909680843CB490860CB4883
:102510000068401CC949086008460068401C086003
:1025200008460068401C08603CE1C3480068C24996
:102530000860C2480068401CC0490860084600683E
:10254000401C08602EE1B9480068452830D3B748E0
:1025500000684F282CD8B9480068062818D2B74818
:102560000068C0F1050101208840B34909680843AB
:10257000B1490860B1480068401CB049086008468D
:102580000068401C086008460068401C086009E1BB
:10259000A948006840F00100A7490860A748006802
:1025A000401CA649086008460068401C0860F9E025
:1025B0009E480068512830D39C4800685B282CD87E
:1025C0009E480068062818D29C480068C0F10501A2
:1025D000022088409849096808439749086097484D
:1025E0000068401C9549086008460068401C086067
:1025F00008460068401C0860D4E08F48006840F03E
:1026000002008D4908608D480068401C8B490860B5
:1026100008460068401C0860C4E0844800685D28E3
:1026200030D38248006867282CD884480068062880
:1026300018D282480068C0F10501032088407E4915
:10264000096808437C4908607C480068401C7B4955
:10265000086008460068401C086008460068401C86
:1026600008609FE07448006840F003007249086009
:1026700072480068401C7149086008460068401CA8
:1026800008608FE06948006869281CD367480068C3
:10269000732818D869480068C0F1050104208840F3
:1026A0006549096808436449086064480068401C3B
:1026B0006249086008460068401C086008460068D7
:1026C000401C08606EE05948006875281CD35748C4
:1026D00000687F2818D859480068C0F10501052016
:1026E00088405549096808435349086053480068C1
:1026F000401C5249086008460068401C08600846B3
:102700000068401C08604DE04848006881281CD3E0
:10271000464800688B2818D848480068C0F1050171
:1027200006208840444909680843434908604348F3
:102730000068401C4149086008460068401C086069
:1027400008460068401C08602CE0384800688D2866
:102750001CD336480068972818D838480068C0F15C
:102760000501072088403449096808433249086058
:1027700032480068401C3149086008460068401C27
:10278000086008460068401C08600BE002211348FE
:10279000FEF779FF254802682848016829A0FFF75D
:1027A000DDFA48E625480068082870D32248016809
:1027B0002EA0FFF7D3FA204800782E49124A12685B
:1027C00088541D4800682C490968401A012855D0D2
:1027D00002210248FEF757FF54E058E00000024093
:1027E000000000200A53797374656D20636C6F6379
:1027F0006B20726174653A20256420487A207665E2
:10280000723D332E300D0A002400002053656172A2
:1028100063682073796E63202E2E2E2E2E2E0000DC
:1028200000000000600000201C000020400000208C
:102830005C000020840000204C0000205400002098
:10284000580000200D0A7369676E616C206C6F730D
:10285000652E2E2E206D3D25642074657374496E9F
:102860006465783D25640D0A00000000307825304D
:1028700032782C0028000020500000200221064859
:10288000FEF703FF0548006805490860D3E54021CD
:10289000012000F045F81EE6000002404C00002038
:1028A00050000020014600BF194A9268402AFBD31D
:1028B00000201DE0164A12680244C2F30D03144AB8
:1028C0000C3202EB830292ED000ADFED120A80EE79
:1028D000201A114B03EBC00282ED001A9FED0F0A84
:1028E000012202EB400203EB820282ED000A401C4F
:1028F0004028DFD3802007E09FED080A064A02EB5C
:10290000800282ED000A401CB0F5006FF4D37047DE
:10291000840000200000804590000120000000009D
:1029200058B1114A9268521A0F4B9A601A461268AF
:102930000A44C2F30D021A6014E00B4A92680A447A
:10294000094B9A601A4612688A4204D31A461268E2
:10295000521A1A6006E0044A126802F58042521ABE
:10296000014B1A6070470000840000200000803F87
:1029700000000000000080BF0000803F8F524EBF6B
:10298000526E403F0000803F00000000000080BF0A
:102990000000803FBEB7E9BFA70B693F0000803F42
:1029A00000000000000080BF0000803FC7D8D1BFFA
:1029B0003E3C3C3F0000803F00000000000080BF24
:1029C0000000803F78EB48BF42AAE03E0000803F15
:1029D00000000000000080BF0000803F0C10B0BF6E
:1029E0007E98063F0000803F00000000000080BF8E
:1029F0000000803FEC0C77BF2624AC3E591EB93E48
:102A0000591EB93EA50BA43EA50BA43E1CBC9A3E84
:102A10001CBC9A3E00040000242A0008244A000836
:102A2000080700000000803F00000000C4FE7F3F58
:102A3000890FC93B11FB7F3F900E493CE6F47F3F75
:102A4000B6C9963C43EC7F3FB00AC93C29E17F3FC1
:102A5000B949FB3C98D37F3F2CC3163D8FC37F3FC2
:102A600007E02F3D0FB17F3F2FFB483D189C7F3F74
:102A70006814623DAB847F3F742B7B3DC76A7F3F08
:102A80000A208A3D6D4E7F3F05A9963D9D2F7F3FD1
:102A90008C30A33D580E7F3F80B6AF3D9DEA7E3F10
:102AA000C33ABC3D6DC47E3F36BDC83DC99B7E3F29
:102AB000B93DD53DB0707E3F2EBCE13D23437E3F06
:102AC0007638EE3D24137E3F73B2FA3DB1E07D3F90
:102AD0000295033ECCAB7D3F86CF093E74747D3FAB
:102AE000B708103EAC3A7D3F8340163E73FE7C3FF4
:102AF000DE761C3EC9BF7C3FB6AB223EB07E7C3F3B
:102B0000FCDE283E283B7C3FA2102F3E31F57B3F68
:102B10009840353ECDAC7B3FCF6E3B3EFC617B3F6A
:102B2000379B413EBE147B3FC2C5473E16C57A3F28
:102B300060EE4D3E02737A3F0115543E841E7A3F8B
:102B400097395A3E9DC7793F135C603E4E6E793F80
:102B5000667C663E9812793F7F9A6C3E7BB4783FE4
:102B600051B6723EF853783FCCCF783E10F1773FA4
:102B7000E1E67E3EC58B773FC07D823E1724773FDE
:102B8000CE86853E07BA763F938E883E974D763F38
:102B900007958B3EC6DE753F229A8E3E976D753F38
:102BA000DD9D913E0BFA743F31A0943E2284743F28
:102BB00017A1973EDD0B743F86A09A3E3F91733F6D
:102BC000789E9D3E4714733FE59AA03EF894723F6D
:102BD000C595A33E5213723F128FA63E578F713F89
:102BE000C486A93E0809713FD47CAC3E6680703F24
:102BF0003A71AF3E73F56F3FEF63B23E30686F3F9F
:102C0000EC54B53E9ED86E3F2A44B83EBE466E3F59
:102C1000A031BB3E93B26D3F4A1DBE3E1D1C6D3FB1
:102C20001E07C13E5E836C3F15EFC33E58E86B3F05
:102C300029D5C63E0C4B6B3F53B9C93E7BAB6A3FAF
:102C40008B9BCC3EA7096A3FCA7BCF3E9165693F0B
:102C5000095AD23E3CBF683F4136D53EA816683F70
:102C60006B10D83ED86B673F80E8DA3ECCBE663F3B
:102C700079BEDD3E880F663F4F92E03E0B5E653FBA
:102C8000FA63E33E59AA643F7533E63E73F4633F4B
:102C9000B700E93E5A3C633FBBCBEB3E1082623F3C
:102CA0007994EE3E98C5613FEA5AF13EF206613FE3
:102CB000071FF43E2146603FCBE0F63E27835F3F8F
:102CC0002DA0F93E05BE5E3F275DFC3EBEF65D3F92
:102CD000B217FF3E532D5D3FE4E7003FC7615C3F05
:102CE000B142023F1A945B3F3D9C033F50C45A3FA0
:102CF00084F4043F6AF2593F824B063F6A1E593FF3
:102D000036A1073F5348583F9BF5083F2670573F71
:102D1000AD480A3FE595563F6B9A0B3F93B9553F37
:102D2000D0EA0C3F31DB543FDA390E3FC3FA533F50
:102D300084870F3F4918533FCDD3103FC633523FCE
:102D4000B01E123F3D4D513F2A68133FAF64503FC4
:102D500039B0143F1F7A4F3FD9F6153F908D4E3F43
:102D6000073C173F029F4D3FC07F183F79AE4C3F55
:102D700000C2193FF8BB4B3FC6021B3F7FC74A3F0B
:102D80000C421C3F12D1493FD17F1D3FB3D8483F71
:102D900012BC1E3F65DE473FCBF61F3F2AE2463F8F
:102DA000F92F213F03E4453F9967223FF5E3443F74
:102DB000A99D233F00E2433F25D2243F29DE423F25
:102DC0000A05263F70D8413F5636273FDAD0403FAC
:102DD0000566283F67C73F3F1594293F1BBC3E3F10
:102DE00082C02A3FF9AE3D3F4AEB2B3F03A03C3F58
:102DF00069142D3F3B8F3B3FDE3B2E3FA47C3A3F87
:102E0000A5612F3F4268393FBB85303F1652383F9E
:102E10001DA8313F233A373FC9C8323F6C20363FA7
:102E2000BCE7333FF304353FF304353FBCE7333FA2
:102E30006C20363FC9C8323F233A373F1DA8313F87
:102E40001652383FBB85303F4268393FA5612F3F5E
:102E5000A47C3A3FDE3B2E3F3B8F3B3F69142D3F26
:102E600003A03C3F4AEB2B3FF9AE3D3F82C02A3FD7
:102E70001BBC3E3F1594293F67C73F3F0566283F6F
:102E8000DAD0403F5636273F70D8413F0A05263FEB
:102E900029DE423F25D2243F00E2433FA99D233F44
:102EA000F5E3443F9967223F03E4453FF92F213F73
:102EB0002AE2463FCBF61F3F65DE473F12BC1E3F6E
:102EC000B3D8483FD17F1D3F12D1493F0C421C3F30
:102ED0007FC74A3FC6021B3FF8BB4B3F00C2193FAA
:102EE00079AE4C3FC07F183F029F4D3F073C173FD4
:102EF000908D4E3FD9F6153F1F7A4F3F39B0143FA2
:102F0000AF64503F2A68133F3D4D513FB01E123F02
:102F1000C633523FCDD3103F4918533F84870F3FEC
:102F2000C3FA533FDA390E3F31DB543FD0EA0C3F4E
:102F300093B9553F6B9A0B3FE595563FAD480A3F15
:102F40002670573F9BF5083F5348583F36A1073F2F
:102F50006A1E593F824B063F6AF2593F84F4043F90
:102F600050C45A3F3D9C033F1A945B3FB142023F1D
:102F7000C7615C3FE4E7003F532D5D3FB217FF3E62
:102F8000BEF65D3F275DFC3E05BE5E3F2DA0F93ECF
:102F900027835F3FCBE0F63E2146603F071FF43EAC
:102FA000F206613FEA5AF13E98C5613F7994EE3EE0
:102FB0001082623FBBCBEB3E5A3C633FB700E93E19
:102FC00073F4633F7533E63E59AA643FFA63E33E08
:102FD0000B5E653F4F92E03E880F663F79BEDD3E57
:102FE000CCBE663F80E8DA3ED86B673F6B10D83EB8
:102FF000A816683F4136D53E3CBF683F095AD23ECD
:103000009165693FCA7BCF3EA7096A3F8B9BCC3E47
:103010007BAB6A3F53B9C93E0C4B6B3F29D5C63ECB
:1030200058E86B3F15EFC33E5E836C3F1E07C13E01
:103030001D1C6D3F4A1DBE3E93B26D3FA031BB3E8D
:10304000BE466E3F2A44B83E9ED86E3FEC54B53E15
:1030500030686F3FEF63B23E73F56F3F3A71AF3E3A
:103060006680703FD47CAC3E0809713FC486A93E9F
:10307000578F713F128FA63E5213723FC595A33EE4
:10308000F894723FE59AA03E4714733F789E9D3EA8
:103090003F91733F86A09A3EDD0B743F17A1973E88
:1030A0002284743F31A0943E0BFA743FDD9D913E23
:1030B000976D753F229A8E3EC6DE753F07958B3E13
:1030C000974D763F938E883E07BA763FCE86853EF3
:1030D0001724773FC07D823EC58B773FE1E67E3E79
:1030E00010F1773FCCCF783EF853783F51B6723E1F
:1030F0007BB4783F7F9A6C3E9812793F667C663E3F
:103100004E6E793F135C603E9DC7793F97395A3EBA
:10311000841E7A3F0115543E02737A3F60EE4D3EA5
:1031200016C57A3FC2C5473EBE147B3F379B413E22
:10313000FC617B3FCF6E3B3ECDAC7B3F9840353E44
:1031400031F57B3FA2102F3E283B7C3FFCDE283E22
:10315000B07E7C3FB6AB223EC9BF7C3FDE761C3ED4
:1031600073FE7C3F8340163EAC3A7D3FB708103E6D
:1031700074747D3F86CF093ECCAB7D3F0295033E04
:10318000B1E07D3F73B2FA3D24137E3F7638EE3DC9
:1031900023437E3F2EBCE13DB0707E3FB93DD53D1F
:1031A000C99B7E3F36BDC83D6DC47E3FC33ABC3D22
:1031B0009DEA7E3F80B6AF3D580E7F3F8C30A33DE9
:1031C0009D2F7F3F05A9963D6D4E7F3F0A208A3D8A
:1031D000C76A7F3F742B7B3DAB847F3F6814623DA1
:1031E000189C7F3F2FFB483D0FB17F3F07E02F3DED
:1031F0008FC37F3F2CC3163D98D37F3FB949FB3C1B
:1032000029E17F3FB00AC93C43EC7F3FB6C9963CF9
:10321000E6F47F3F900E493C11FB7F3F890FC93B8D
:10322000C4FE7F3F000000000000803F890FC9BB43
:10323000C4FE7F3F900E49BC11FB7F3FB6C996BCD0
:10324000E6F47F3FB00AC9BC43EC7F3FB949FBBC01
:1032500029E17F3F2CC316BD98D37F3F07E02FBDE8
:103260008FC37F3F2FFB48BD0FB17F3F681462BD06
:10327000189C7F3F742B7BBDAB847F3F0A208ABDA7
:10328000C76A7F3F05A996BD6D4E7F3F8C30A3BDB9
:103290009D2F7F3F80B6AFBD580E7F3FC33ABCBD68
:1032A0009DEA7E3F36BDC8BD6DC47E3FB93DD5BDEC
:1032B000C99B7E3F2EBCE1BDB0707E3F7638EEBD2F
:1032C00023437E3F73B2FABD24137E3F029503BEB3
:1032D000B1E07D3F86CF09BECCAB7D3FB70810BEC5
:1032E00074747D3F834016BEAC3A7D3FDE761CBED3
:1032F00073FE7C3FB6AB22BEC9BF7C3FFCDE28BE5E
:10330000B07E7C3FA2102FBE283B7C3F984035BE4C
:1033100031F57B3FCF6E3BBECDAC7B3F379B41BE93
:10332000FC617B3FC2C547BEBE147B3F60EE4DBE15
:1033300016C57A3F011554BE02737A3F97395ABEBB
:10334000841E7A3F135C60BE9DC7793F667C66BE73
:103350004E6E793F7F9A6CBE9812793F51B672BE1D
:103360007BB4783FCCCF78BEF853783FE1E67EBEA1
:1033700010F1773FC07D82BEC58B773FCE8685BE7C
:103380001724773F938E88BE07BA763F07958BBE8A
:10339000974D763F229A8EBEC6DE753FDD9D91BE6B
:1033A000976D753F31A094BE0BFA743F17A197BE7D
:1033B0002284743F86A09ABEDD0B743F789E9DBE2A
:1033C0003F91733FE59AA0BE4714733FC595A3BED6
:1033D000F894723F128FA6BE5213723FC486A9BEE4
:1033E000578F713FD47CACBE0809713F3A71AFBEB4
:1033F0006680703FEF63B2BE73F56F3FEC54B5BEAD
:1034000030686F3F2A44B8BE9ED86E3FA031BBBE25
:10341000BE466E3F4A1DBEBE93B26D3F1E07C1BE83
:103420001D1C6D3F15EFC3BE5E836C3F29D5C6BE24
:1034300058E86B3F53B9C9BE0C4B6B3F8B9BCCBE5E
:103440007BAB6A3FCA7BCFBEA7096A3F095AD2BE8F
:103450009165693F4136D5BE3CBF683F6B10D8BE11
:10346000A816683F80E8DABED86B673F79BEDDBE3C
:10347000CCBE663F4F92E0BE880F663FFA63E3BE64
:103480000B5E653F7533E6BE59AA643FB700E9BEDF
:1034900073F4633FBBCBEBBE5A3C633F7994EEBE03
:1034A0001082623FEA5AF1BE98C5613F071FF4BE21
:1034B000F206613FCBE0F6BE2146603F2DA0F9BE8B
:1034C00027835F3F275DFCBE05BE5E3FB217FFBE90
:1034D000BEF65D3FE4E700BF532D5D3FB14202BF42
:1034E000C7615C3F3D9C03BF1A945B3F84F404BFFB
:1034F00050C45A3F824B06BF6AF2593F36A107BFFC
:103500006A1E593F9BF508BF5348583FAD480ABF54
:103510002670573F6B9A0BBFE595563FD0EA0CBF1C
:1035200093B9553FDA390EBF31DB543F84870FBF63
:10353000C3FA533FCDD310BF4918533FB01E12BF3B
:10354000C633523F2A6813BF3D4D513F39B014BFB7
:10355000AF64503FD9F615BF1F7A4F3F073C17BFE6
:10356000908D4E3FC07F18BF029F4D3F00C219BFD4
:1035700079AE4C3FC6021BBFF8BB4B3F0C421CBF91
:103580007FC74A3FD17F1DBF12D1493F12BC1EBF2A
:10359000B3D8483FCBF61FBF65DE473FF92F21BFA9
:1035A0002AE2463F996722BF03E4453FA99D23BF16
:1035B000F5E3443F25D224BF00E2433F0A0526BF7E
:1035C00029DE423F563627BF70D8413F056628BFE7
:1035D000DAD0403F159429BF67C73F3F82C02ABF5A
:1035E0001BBC3E3F4AEB2BBFF9AE3D3F69142DBFDC
:1035F00003A03C3FDE3B2EBF3B8F3B3FA5612FBF6F
:10360000A47C3A3FBB8530BF4268393F1DA831BF1B
:103610001652383FC9C832BF233A373FBCE733BFE1
:103620006C20363FF30435BFF304353F6C2036BFC2
:10363000BCE7333F233A37BFC9C8323F165238BFC1
:103640001DA8313F426839BFBB85303FA47C3ABFDB
:10365000A5612F3F3B8F3BBFDE3B2E3F03A03CBF0E
:1036600069142D3FF9AE3DBF4AEB2B3F1BBC3EBF5B
:1036700082C02A3F67C73FBF1594293FDAD040BFB9
:103680000566283F70D841BF5636273F29DE42BF26
:103690000A05263F00E243BF25D2243FF5E344BF9D
:1036A000A99D233F03E445BF9967223F2AE246BF15
:1036B000F92F213F65DE47BFCBF61F3FB3D848BF88
:1036C00012BC1E3F12D149BFD17F1D3F7FC74ABFE9
:1036D0000C421C3FF8BB4BBFC6021B3F79AE4CBF30
:1036E00000C2193F029F4DBFC07F183F908D4EBF53
:1036F000073C173F1F7A4FBFD9F6153FAF6450BF45
:1037000039B0143F3D4D51BF2A68133FC63352BFF5
:10371000B01E123F491853BFCDD3103FC3FA53BF59
:1037200084870F3F31DB54BFDA390E3F93B955BF61
:10373000D0EA0C3FE59556BF6B9A0B3F267057BFFA
:10374000AD480A3F534858BF9BF5083F6A1E59BF12
:1037500036A1073F6AF259BF824B063F50C45ABF99
:1037600084F4043F1A945BBF3D9C033FC7615CBF78
:10377000B142023F532D5DBFE4E7003FBEF65DBF9F
:10378000B217FF3E05BE5EBF275DFC3E27835FBFCD
:103790002DA0F93E214660BFCBE0F63EF20661BFA8
:1037A000071FF43E98C561BFEA5AF13E108262BF1E
:1037B0007994EE3E5A3C63BFBBCBEB3E73F463BFE0
:1037C000B700E93E59AA64BF7533E63E0B5E65BF9C
:1037D000FA63E33E880F66BF4F92E03ECCBE66BF01
:1037E00079BEDD3ED86B67BF80E8DA3EA81668BFB9
:1037F0006B10D83E3CBF68BF4136D53E916569BF6E
:10380000095AD23EA7096ABFCA7BCF3E7BAB6ABFCB
:103810008B9BCC3E0C4B6BBF53B9C93E58E86BBF7A
:1038200029D5C63E5E836CBF15EFC33E1D1C6DBF20
:103830001E07C13E93B26DBF4A1DBE3EBE466EBF5F
:10384000A031BB3E9ED86EBF2A44B83E30686FBFE1
:10385000EC54B53E73F56FBFEF63B23E668070BF48
:103860003A71AF3E080971BFD47CAC3E578F71BF2F
:10387000C486A93E521372BF128FA63EF89472BF3F
:10388000C595A33E471473BFE59AA03E3F9173BF11
:10389000789E9D3EDD0B74BF86A09A3E228474BF45
:1038A00017A1973E0BFA74BF31A0943E976D75BF78
:1038B000DD9D913EC6DE75BF229A8E3E974D76BF46
:1038C00007958B3E07BA76BF938E883E172477BF45
:1038D000CE86853EC58B77BFC07D823E10F177BF17
:1038E000E1E67E3EF85378BFCCCF783E7BB478BF1C
:1038F00051B6723E981279BF7F9A6C3E4E6E79BF78
:10390000667C663E9DC779BF135C603E841E7ABFAD
:1039100097395A3E02737ABF0115543E16C57ABFD5
:1039200060EE4D3EBE147BBFC2C5473EFC617BBF0F
:10393000379B413ECDAC7BBFCF6E3B3E31F57BBF6D
:103940009840353E283B7CBFA2102F3EB07E7CBF06
:10395000FCDE283EC9BF7CBFB6AB223E73FE7CBFF7
:10396000DE761C3EAC3A7DBF8340163E74747DBF4C
:10397000B708103ECCAB7DBF86CF093EB1E07DBF1E
:103980000295033E24137EBF73B2FA3D23437EBFEC
:103990007638EE3DB0707EBF2EBCE13DC99B7EBF48
:1039A000B93DD53D6DC47EBF36BDC83D9DEA7EBFE5
:1039B000C33ABC3D580E7FBF80B6AF3D9D2F7FBF41
:1039C0008C30A33D6D4E7FBF05A9963DC76A7FBF72
:1039D0000A208A3DAB847FBF742B7B3D189C7FBF40
:1039E0006814623D0FB17FBF2FFB483D8FC37FBF7F
:1039F00007E02F3D98D37FBF2CC3163D29E17FBF41
:103A0000B949FB3C43EC7FBFB00AC93CE6F47FBF39
:103A1000B6C9963C11FB7FBF900E493CC4FE7FBFE8
:103A2000890FC93B000080BF00000000C4FE7FBFBB
:103A3000890FC9BB11FB7FBF900E49BCE6F47FBF65
:103A4000B6C996BC43EC7FBFB00AC9BC29E17FBFB1
:103A5000B949FBBC98D37FBF2CC316BD8FC37FBFB2
:103A600007E02FBD0FB17FBF2FFB48BD189C7FBF64
:103A7000681462BDAB847FBF742B7BBDC76A7FBFF8
:103A80000A208ABD6D4E7FBF05A996BD9D2F7FBFC1
:103A90008C30A3BD580E7FBF80B6AFBD9DEA7EBF00
:103AA000C33ABCBD6DC47EBF36BDC8BDC99B7EBF19
:103AB000B93DD5BDB0707EBF2EBCE1BD23437EBFF6
:103AC0007638EEBD24137EBF73B2FABDB1E07DBF80
:103AD000029503BECCAB7DBF86CF09BE74747DBF9B
:103AE000B70810BEAC3A7DBF834016BE73FE7CBFE4
:103AF000DE761CBEC9BF7CBFB6AB22BEB07E7CBF2B
:103B0000FCDE28BE283B7CBFA2102FBE31F57BBF58
:103B1000984035BECDAC7BBFCF6E3BBEFC617BBF5A
:103B2000379B41BEBE147BBFC2C547BE16C57ABF18
:103B300060EE4DBE02737ABF011554BE841E7ABF7B
:103B400097395ABE9DC779BF135C60BE4E6E79BF70
:103B5000667C66BE981279BF7F9A6CBE7BB478BFD4
:103B600051B672BEF85378BFCCCF78BE10F177BF94
:103B7000E1E67EBEC58B77BFC07D82BE172477BFCE
:103B8000CE8685BE07BA76BF938E88BE974D76BF28
:103B900007958BBEC6DE75BF229A8EBE976D75BF28
:103BA000DD9D91BE0BFA74BF31A094BE228474BF18
:103BB00017A197BEDD0B74BF86A09ABE3F9173BF5D
:103BC000789E9DBE471473BFE59AA0BEF89472BF5D
:103BD000C595A3BE521372BF128FA6BE578F71BF79
:103BE000C486A9BE080971BFD47CACBE668070BF14
:103BF0003A71AFBE73F56FBFEF63B2BE30686FBF8F
:103C0000EC54B5BE9ED86EBF2A44B8BEBE466EBF49
:103C1000A031BBBE93B26DBF4A1DBEBE1D1C6DBFA1
:103C20001E07C1BE5E836CBF15EFC3BE58E86BBFF5
:103C300029D5C6BE0C4B6BBF53B9C9BE7BAB6ABF9F
:103C40008B9BCCBEA7096ABFCA7BCFBE916569BFFB
:103C5000095AD2BE3CBF68BF4136D5BEA81668BF60
:103C60006B10D8BED86B67BF80E8DABECCBE66BF2B
:103C700079BEDDBE880F66BF4F92E0BE0B5E65BFAA
:103C8000FA63E3BE59AA64BF7533E6BE73F463BF3B
:103C9000B700E9BE5A3C63BFBBCBEBBE108262BF2C
:103CA0007994EEBE98C561BFEA5AF1BEF20661BFD3
:103CB000071FF4BE214660BFCBE0F6BE27835FBF7F
:103CC0002DA0F9BE05BE5EBF275DFCBEBEF65DBF82
:103CD000B217FFBE532D5DBFE4E700BFC7615CBFF5
:103CE000B14202BF1A945BBF3D9C03BF50C45ABF90
:103CF00084F404BF6AF259BF824B06BF6A1E59BFE3
:103D000036A107BF534858BF9BF508BF267057BF61
:103D1000AD480ABFE59556BF6B9A0BBF93B955BF27
:103D2000D0EA0CBF31DB54BFDA390EBFC3FA53BF40
:103D300084870FBF491853BFCDD310BFC63352BFBE
:103D4000B01E12BF3D4D51BF2A6813BFAF6450BFB4
:103D500039B014BF1F7A4FBFD9F615BF908D4EBF33
:103D6000073C17BF029F4DBFC07F18BF79AE4CBF45
:103D700000C219BFF8BB4BBFC6021BBF7FC74ABFFB
:103D80000C421CBF12D149BFD17F1DBFB3D848BF61
:103D900012BC1EBF65DE47BFCBF61FBF2AE246BF7F
:103DA000F92F21BF03E445BF996722BFF5E344BF64
:103DB000A99D23BF00E243BF25D224BF29DE42BF15
:103DC0000A0526BF70D841BF563627BFDAD040BF9C
:103DD000056628BF67C73FBF159429BF1BBC3EBF00
:103DE00082C02ABFF9AE3DBF4AEB2BBF03A03CBF48
:103DF00069142DBF3B8F3BBFDE3B2EBFA47C3ABF77
:103E0000A5612FBF426839BFBB8530BF165238BF8E
:103E10001DA831BF233A37BFC9C832BF6C2036BF97
:103E2000BCE733BFF30435BFF30435BFBCE733BF92
:103E30006C2036BFC9C832BF233A37BF1DA831BF77
:103E4000165238BFBB8530BF426839BFA5612FBF4E
:103E5000A47C3ABFDE3B2EBF3B8F3BBF69142DBF16
:103E600003A03CBF4AEB2BBFF9AE3DBF82C02ABFC7
:103E70001BBC3EBF159429BF67C73FBF056628BF5F
:103E8000DAD040BF563627BF70D841BF0A0526BFDB
:103E900029DE42BF25D224BF00E243BFA99D23BF34
:103EA000F5E344BF996722BF03E445BFF92F21BF63
:103EB0002AE246BFCBF61FBF65DE47BF12BC1EBF5E
:103EC000B3D848BFD17F1DBF12D149BF0C421CBF20
:103ED0007FC74ABFC6021BBFF8BB4BBF00C219BF9A
:103EE00079AE4CBFC07F18BF029F4DBF073C17BFC4
:103EF000908D4EBFD9F615BF1F7A4FBF39B014BF92
:103F0000AF6450BF2A6813BF3D4D51BFB01E12BFF2
:103F1000C63352BFCDD310BF491853BF84870FBFDC
:103F2000C3FA53BFDA390EBF31DB54BFD0EA0CBF3E
:103F300093B955BF6B9A0BBFE59556BFAD480ABF05
:103F4000267057BF9BF508BF534858BF36A107BF1F
:103F50006A1E59BF824B06BF6AF259BF84F404BF80
:103F600050C45ABF3D9C03BF1A945BBFB14202BF0D
:103F7000C7615CBFE4E700BF532D5DBFB217FFBE52
:103F8000BEF65DBF275DFCBE05BE5EBF2DA0F9BEBF
:103F900027835FBFCBE0F6BE214660BF071FF4BE9C
:103FA000F20661BFEA5AF1BE98C561BF7994EEBED0
:103FB000108262BFBBCBEBBE5A3C63BFB700E9BE09
:103FC00073F463BF7533E6BE59AA64BFFA63E3BEF8
:103FD0000B5E65BF4F92E0BE880F66BF79BEDDBE47
:103FE000CCBE66BF80E8DABED86B67BF6B10D8BEA8
:103FF000A81668BF4136D5BE3CBF68BF095AD2BEBD
:10400000916569BFCA7BCFBEA7096ABF8B9BCCBE37
:104010007BAB6ABF53B9C9BE0C4B6BBF29D5C6BEBB
:1040200058E86BBF15EFC3BE5E836CBF1E07C1BEF1
:104030001D1C6DBF4A1DBEBE93B26DBFA031BBBE7D
:10404000BE466EBF2A44B8BE9ED86EBFEC54B5BE05
:1040500030686FBFEF63B2BE73F56FBF3A71AFBE2A
:10406000668070BFD47CACBE080971BFC486A9BE8F
:10407000578F71BF128FA6BE521372BFC595A3BED4
:10408000F89472BFE59AA0BE471473BF789E9DBE98
:104090003F9173BF86A09ABEDD0B74BF17A197BE78
:1040A000228474BF31A094BE0BFA74BFDD9D91BE13
:1040B000976D75BF229A8EBEC6DE75BF07958BBE03
:1040C000974D76BF938E88BE07BA76BFCE8685BEE3
:1040D000172477BFC07D82BEC58B77BFE1E67EBE69
:1040E00010F177BFCCCF78BEF85378BF51B672BE0F
:1040F0007BB478BF7F9A6CBE981279BF667C66BE2F
:104100004E6E79BF135C60BE9DC779BF97395ABEAA
:10411000841E7ABF011554BE02737ABF60EE4DBE95
:1041200016C57ABFC2C547BEBE147BBF379B41BE12
:10413000FC617BBFCF6E3BBECDAC7BBF984035BE34
:1041400031F57BBFA2102FBE283B7CBFFCDE28BE12
:10415000B07E7CBFB6AB22BEC9BF7CBFDE761CBEC4
:1041600073FE7CBF834016BEAC3A7DBFB70810BE5D
:1041700074747DBF86CF09BECCAB7DBF029503BEF4
:10418000B1E07DBF73B2FABD24137EBF7638EEBDB9
:1041900023437EBF2EBCE1BDB0707EBFB93DD5BD0F
:1041A000C99B7EBF36BDC8BD6DC47EBFC33ABCBD12
:1041B0009DEA7EBF80B6AFBD580E7FBF8C30A3BDD9
:1041C0009D2F7FBF05A996BD6D4E7FBF0A208ABD7A
:1041D000C76A7FBF742B7BBDAB847FBF681462BD91
:1041E000189C7FBF2FFB48BD0FB17FBF07E02FBDDD
:1041F0008FC37FBF2CC316BD98D37FBFB949FBBC0B
:1042000029E17FBFB00AC9BC43EC7FBFB6C996BCE9
:10421000E6F47FBF900E49BC11FB7FBF890FC9BB7D
:10422000C4FE7FBF00000080000080BF890FC93B33
:10423000C4FE7FBF900E493C11FB7FBFB6C9963CC0
:10424000E6F47FBFB00AC93C43EC7FBFB949FB3CF1
:1042500029E17FBF2CC3163D98D37FBF07E02F3DD8
:104260008FC37FBF2FFB483D0FB17FBF6814623DF6
:10427000189C7FBF742B7B3DAB847FBF0A208A3D97
:10428000C76A7FBF05A9963D6D4E7FBF8C30A33DA9
:104290009D2F7FBF80B6AF3D580E7FBFC33ABC3D58
:1042A0009DEA7EBF36BDC83D6DC47EBFB93DD53DDC
:1042B000C99B7EBF2EBCE13DB0707EBF7638EE3D1F
:1042C00023437EBF73B2FA3D24137EBF0295033EA3
:1042D000B1E07DBF86CF093ECCAB7DBFB708103EB5
:1042E00074747DBF8340163EAC3A7DBFDE761C3EC3
:1042F00073FE7CBFB6AB223EC9BF7CBFFCDE283E4E
:10430000B07E7CBFA2102F3E283B7CBF9840353E3C
:1043100031F57BBFCF6E3B3ECDAC7BBF379B413E83
:10432000FC617BBFC2C5473EBE147BBF60EE4D3E05
:1043300016C57ABF0115543E02737ABF97395A3EAB
:10434000841E7ABF135C603E9DC779BF667C663E63
:104350004E6E79BF7F9A6C3E981279BF51B6723E0D
:104360007BB478BFCCCF783EF85378BFE1E67E3E91
:1043700010F177BFC07D823EC58B77BFCE86853E6C
:10438000172477BF938E883E07BA76BF07958B3E7A
:10439000974D76BF229A8E3EC6DE75BFDD9D913E5B
:1043A000976D75BF31A0943E0BFA74BF17A1973E6D
:1043B000228474BF86A09A3EDD0B74BF789E9D3E1A
:1043C0003F9173BFE59AA03E471473BFC595A33EC6
:1043D000F89472BF128FA63E521372BFC486A93ED4
:1043E000578F71BFD47CAC3E080971BF3A71AF3EA4
:1043F000668070BFEF63B23E73F56FBFEC54B53E9D
:1044000030686FBF2A44B83E9ED86EBFA031BB3E15
:10441000BE466EBF4A1DBE3E93B26DBF1E07C13E73
:104420001D1C6DBF15EFC33E5E836CBF29D5C63E14
:1044300058E86BBF53B9C93E0C4B6BBF8B9BCC3E4E
:104440007BAB6ABFCA7BCF3EA7096ABF095AD23E7F
:10445000916569BF4136D53E3CBF68BF6B10D83E01
:10446000A81668BF80E8DA3ED86B67BF79BEDD3E2C
:10447000CCBE66BF4F92E03E880F66BFFA63E33E54
:104480000B5E65BF7533E63E59AA64BFB700E93ECF
:1044900073F463BFBBCBEB3E5A3C63BF7994EE3EF3
:1044A000108262BFEA5AF13E98C561BF071FF43E11
:1044B000F20661BFCBE0F63E214660BF2DA0F93E7B
:1044C00027835FBF275DFC3E05BE5EBFB217FF3E80
:1044D000BEF65DBFE4E7003F532D5DBFB142023F32
:1044E000C7615CBF3D9C033F1A945BBF84F4043FEB
:1044F00050C45ABF824B063F6AF259BF36A1073FEC
:104500006A1E59BF9BF5083F534858BFAD480A3F44
:10451000267057BF6B9A0B3FE59556BFD0EA0C3F0C
:1045200093B955BFDA390E3F31DB54BF84870F3F53
:10453000C3FA53BFCDD3103F491853BFB01E123F2B
:10454000C63352BF2A68133F3D4D51BF39B0143FA7
:10455000AF6450BFD9F6153F1F7A4FBF073C173FD6
:10456000908D4EBFC07F183F029F4DBF00C2193FC4
:1045700079AE4CBFC6021B3FF8BB4BBF0C421C3F81
:104580007FC74ABFD17F1D3F12D149BF12BC1E3F1A
:10459000B3D848BFCBF61F3F65DE47BFF92F213F99
:1045A0002AE246BF9967223F03E445BFA99D233F06
:1045B000F5E344BF25D2243F00E243BF0A05263F6E
:1045C00029DE42BF5636273F70D841BF0566283FD7
:1045D000DAD040BF1594293F67C73FBF82C02A3F4A
:1045E0001BBC3EBF4AEB2B3FF9AE3DBF69142D3FCC
:1045F00003A03CBFDE3B2E3F3B8F3BBFA5612F3F5F
:10460000A47C3ABFBB85303F426839BF1DA8313F0B
:10461000165238BFC9C8323F233A37BFBCE7333FD1
:104620006C2036BFF304353FF30435BF6C20363FB2
:10463000BCE733BF233A373FC9C832BF1652383FB1
:104640001DA831BF4268393FBB8530BFA47C3A3FCB
:10465000A5612FBF3B8F3B3FDE3B2EBF03A03C3FFE
:1046600069142DBFF9AE3D3F4AEB2BBF1BBC3E3F4B
:1046700082C02ABF67C73F3F159429BFDAD0403FA9
:10468000056628BF70D8413F563627BF29DE423F16
:104690000A0526BF00E2433F25D224BFF5E3443F8D
:1046A000A99D23BF03E4453F996722BF2AE2463F05
:1046B000F92F21BF65DE473FCBF61FBFB3D8483F78
:1046C00012BC1EBF12D1493FD17F1DBF7FC74A3FD9
:1046D0000C421CBFF8BB4B3FC6021BBF79AE4C3F20
:1046E00000C219BF029F4D3FC07F18BF908D4E3F43
:1046F000073C17BF1F7A4F3FD9F615BFAF64503F35
:1047000039B014BF3D4D513F2A6813BFC633523FE5
:10471000B01E12BF4918533FCDD310BFC3FA533F49
:1047200084870FBF31DB543FDA390EBF93B9553F51
:10473000D0EA0CBFE595563F6B9A0BBF2670573FEA
:10474000AD480ABF5348583F9BF508BF6A1E593F02
:1047500036A107BF6AF2593F824B06BF50C45A3F89
:1047600084F404BF1A945B3F3D9C03BFC7615C3F68
:10477000B14202BF532D5D3FE4E700BFBEF65D3F8F
:10478000B217FFBE05BE5E3F275DFCBE27835F3FBD
:104790002DA0F9BE2146603FCBE0F6BEF206613F98
:1047A000071FF4BE98C5613FEA5AF1BE1082623F0E
:1047B0007994EEBE5A3C633FBBCBEBBE73F4633FD0
:1047C000B700E9BE59AA643F7533E6BE0B5E653F8C
:1047D000FA63E3BE880F663F4F92E0BECCBE663FF1
:1047E00079BEDDBED86B673F80E8DABEA816683FA9
:1047F0006B10D8BE3CBF683F4136D5BE9165693F5E
:10480000095AD2BEA7096A3FCA7BCFBE7BAB6A3FBB
:104810008B9BCCBE0C4B6B3F53B9C9BE58E86B3F6A
:1048200029D5C6BE5E836C3F15EFC3BE1D1C6D3F10
:104830001E07C1BE93B26D3F4A1DBEBEBE466E3F4F
:10484000A031BBBE9ED86E3F2A44B8BE30686F3FD1
:10485000EC54B5BE73F56F3FEF63B2BE6680703F38
:104860003A71AFBE0809713FD47CACBE578F713F1F
:10487000C486A9BE5213723F128FA6BEF894723F2F
:10488000C595A3BE4714733FE59AA0BE3F91733F01
:10489000789E9DBEDD0B743F86A09ABE2284743F35
:1048A00017A197BE0BFA743F31A094BE976D753F68
:1048B000DD9D91BEC6DE753F229A8EBE974D763F36
:1048C00007958BBE07BA763F938E88BE1724773F35
:1048D000CE8685BEC58B773FC07D82BE10F1773F07
:1048E000E1E67EBEF853783FCCCF78BE7BB4783F0C
:1048F00051B672BE9812793F7F9A6CBE4E6E793F68
:10490000667C66BE9DC7793F135C60BE841E7A3F9D
:1049100097395ABE02737A3F011554BE16C57A3FC5
:1049200060EE4DBEBE147B3FC2C547BEFC617B3FFF
:10493000379B41BECDAC7B3FCF6E3BBE31F57B3F5D
:10494000984035BE283B7C3FA2102FBEB07E7C3FF6
:10495000FCDE28BEC9BF7C3FB6AB22BE73FE7C3FE7
:10496000DE761CBEAC3A7D3F834016BE74747D3F3C
:10497000B70810BECCAB7D3F86CF09BEB1E07D3F0E
:10498000029503BE24137E3F73B2FABD23437E3FDC
:104990007638EEBDB0707E3F2EBCE1BDC99B7E3F38
:1049A000B93DD5BD6DC47E3F36BDC8BD9DEA7E3FD5
:1049B000C33ABCBD580E7F3F80B6AFBD9D2F7F3F31
:1049C0008C30A3BD6D4E7F3F05A996BDC76A7F3F62
:1049D0000A208ABDAB847F3F742B7BBD189C7F3F30
:1049E000681462BD0FB17F3F2FFB48BD8FC37F3F6F
:1049F00007E02FBD98D37F3F2CC316BD29E17F3F31
:104A0000B949FBBC43EC7F3FB00AC9BCE6F47F3F29
:104A1000B6C996BC11FB7F3F900E49BCC4FE7F3FD8
:104A2000890FC9BB08000010100000021800001216
:104A30002000000428000014300000063800001692
:104A400040000008480000185000000A5800001AF2
:104A50006000000C6800001C7000000E7800001E52
:104A6000800000088800401090004002980040122A
:104A7000A0004004A8004014B0004006B800401652
:104A8000C0004008C8004018D000400AD800401AB2
:104A9000E000400CE800401CF000400EF800401E12
:104AA0000001000808018010100180021801801226
:104AB000200180042801801430018006380180160E
:104AC00040018008480180185001800A5801801A6E
:104AD0006001800C6801801C7001800E7801801ECE
:104AE000800140088801C0109001C0029801C012E6
:104AF000A001C004A801C014B001C006B801C016CE
:104B0000C001C008C801C018D001C00AD801C01A2D
:104B1000E001C00CE801C01CF001C00EF801C01E8D
:104B2000000200080802001110020003180200131E
:104B30002002000528020015300200073802001785
:104B400040020009480200195002000B5802001BE5
:104B50006002000D6802001D7002000F7802001F45
:104B6000800280088802401190024003980240139E
:104B7000A0024005A8024015B0024007B802401745
:104B8000C0024009C8024019D002400BD802401BA5
:104B9000E002400DE802401DF002400FF802401F05
:104BA00000034008080380111003800318038013DA
:104BB0002003800528038015300380073803801701
:104BC00040038009480380195003800B5803801B61
:104BD0006003800D6803801D7003800F7803801FC1
:104BE0008003C0088803C0119003C0039803C0135A
:104BF000A003C005A803C015B003C007B803C017C1
:104C0000C003C009C803C019D003C00BD803C01B20
:104C1000E003C00DE803C01DF003C00FF803C01F80
:104C200000040010080408101004001118040812F1
:104C30002004081028040814300408063804081654
:104C400040040808480408185004080A5804081AC0
:104C50006004080C6804081C7004080E7804081E20
:104C60008004001888044810900400199804481221
:104C7000A0040818A8044814B0044806B80448164C
:104C8000C0044808C8044818D004480AD804481A80
:104C9000E004480CE804481CF004480EF804481EE0
:104CA00000054010080588101005401118058812ED
:104CB0002005481028058814300588063805881610
:104CC00040058808480588185005880A5805881A3C
:104CD0006005880C6805881C7005880E7805881E9C
:104CE000800540188805C810900540199805C8121D
:104CF000A0054818A805C814B005C806B805C81608
:104D0000C005C808C805C818D005C80AD805C81AFB
:104D1000E005C80CE805C81CF005C80EF805C81E5B
:104D200000068010080608111006801118060813E6
:104D300020068810280608153006080738060817C8
:104D400040060809480608195006080B5806081BB3
:104D50006006080D6806081D7006080F7806081F13
:104D60008006801888064811900680199806481316
:104D7000A0068818A8064815B0064807B8064817C0
:104D8000C0064809C8064819D006480BD806481B73
:104D9000E006480DE806481DF006480FF806481FD3
:104DA0000007C010080788111007C01118078813E2
:104DB0002007C81028078815300788073807881784
:104DC00040078809480788195007880B5807881B2F
:104DD0006007880D6807881D7007880F7807881F8F
:104DE0008007C0188807C8119007C0199807C81312
:104DF000A007C818A807C815B007C807B807C8177C
:104E0000C007C809C807C819D007C80BD807C81BEE
:104E1000E007C80DE807C81DF007C80FF807C81F4E
:104E20000808101010084008180810122008001177
:104E30002808101430088011380810164808101877
:104E40005008100A5808101A6008100C6808101C46
:104E50007008100E7808101E8008000A880850108C
:104E60009008000B98085012A008080AA8085014CF
:104E7000B008080BB8085016C008100AC808501827
:104E8000D008500AD808501AE008500CE808501C06
:104E9000F008500EF808501E0809901010098009FB
:104EA0001809901220090019280990143009801956
:104EB000380990164009000B480990185009900ACB
:104EC0005809901A6009900C6809901C7009900E9E
:104ED0007809901E8009400A8809D0109009400B7B
:104EE0009809D012A009480AA809D014B009480BA3
:104EF000B809D016C009500AC809D018D009D00A7C
:104F0000D809D01AE009D00CE809D01CF009D00E5D
:104F1000F809D01E080A1011180A1013200A4011AF
:104F2000280A1015300AC011380A1017480A10193B
:104F3000500A100B580A101B600A100D680A101D49
:104F4000700A100F780A101F880A5011900A800BFF
:104F5000980A5013A00A5011A80A5015B00A880BDD
:104F6000B80A5017C00A800BC80A5019D00A500B53
:104F7000D80A501BE00A500DE80A501DF00A500FE5
:104F8000F80A501F080B9011180B9013200B4019B2
:104F9000280B9015300BC019380B9017480B90193F
:104FA000500B900B580B901B600B900D680B901DD5
:104FB000700B900F780B901F880BD011900BC00BCB
:104FC000980BD013A00B5019A80BD015B00BC80B21
:104FD000B80BD017C80BD019D80BD01BE00BD00DD5
:104FE000E80BD01DF00BD00FF80BD01F000C0012F7
:104FF000080C1810100C0013180C1812200C0812B2
:10500000280C1814300C0813380C1816400C101209
:10501000480C1818500C1013580C181A600C181261
:10502000680C181C700C180E780C181E800C001AD6
:10503000880C5810900C001B980C5812A00C081AE1
:10504000A80C5814B00C081BB80C5816C00C101A39
:10505000C80C5818D00C101BD80C581AE00C181A91
:10506000E80C581CF00C580EF80C581E000D40129D
:10507000080D9810100D4013180D9812200D4812AD
:10508000280D9814300D4813380D9816400D501205
:10509000480D9818500D5013580D981A600D58125D
:1050A000680D981C700D980E780D981E800D401A92
:1050B000880DD810900D401B980DD812A00D481ADD
:1050C000A80DD814B00D481BB80DD816C00D501A35
:1050D000C80DD818D00D501BD80DD81AE00D581A8D
:1050E000E80DD81CF00DD80EF80DD81E000E801259
:1050F000080E1811100E8013180E1813200E8812A7
:10510000280E1815300E8813380E1817400E9012FE
:10511000480E1819500E9013580E181B600E981256
:10512000680E181D700E180F780E181F800E801A4A
:10513000880E5811900E801B980E5813A00E881AD6
:10514000A80E5815B00E881BB80E5817C00E901A2E
:10515000C80E5819D00E901BD80E581BE00E981A86
:10516000E80E581DF00E580FF80E581F000FC01211
:10517000080F9811100FC013180F9813200FC812A2
:10518000280F9815300FC813380F9817400FD012FA
:10519000480F9819500FD013580F981B600FD81252
:1051A000680F981D700F980F780F981F800FC01A06
:1051B000880FD811900FC01B980FD813A00FC81AD2
:1051C000A80FD815B00FC81BB80FD817C00FD01A2A
:1051D000C80FD819D00FD01BD80FD81BE00FD81A82
:1051E000E80FD81DF00FD81BF80FD81F081020109B
:1051F00010104010181020122810201430108810A1
:10520000381020164010001148102018501040117E
:105210005810201A601008126810201C7010881294
:105220007810201E80100012881008129010401272
:1052300098106012A0102012A8106014B010601214
:10524000B8106016C0100013C8106018D0104013BA
:10525000D810601AE0101812E810601CF0109812B4
:10526000F810601E08112012101140111811A01220
:10527000201108182811A014301188183811A01610
:105280004811A0185811A01A6011081A6811A01C22
:105290007011881A7811A01E80111012881118122E
:1052A000901150129811E012A0111818A811E014D2
:1052B000B0119818B811E016C0111013C811E018F9
:1052C000D0115013D811E01AE011181AE811E01C9F
:1052D000F011981AF811E01E0012001808120818B0
:1052E000101240181812201320122018281220150E
:1052F0003012601838122017401200194812201975
:10530000501240195812201B601220196812201DDB
:105310007012C8127812201F8012001A8812081A00
:105320009012401A98126013A012201AA812601549
:10533000B012601AB8126017C012001BC8126019B0
:10534000D012401BD812601BE012201BE812601D17
:10535000F012601BF812601F0013101808131818C1
:10536000101350181813A013201348182813A01551
:105370003013C8183813A017401310194813A01978
:10538000501350195813A01B6013481A6813A01D1E
:105390007013C81A7813A01F8013101A8813181AD4
:1053A0009013501A9813E013A0135818A813E0157F
:1053B000B013D818B813E017C013101BC813E019A6
:1053C000D013501BD813E01BE013581AE813E01D4C
:1053D000F013D81AF813E01F081420141014001545
:1053E0001814201530140815381428164014001508
:1053F00048142818501410155814281A6014201531
:105400006814281C701418157814281E8014001CA9
:105410008814201C9014001D9814201DA014081C32
:10542000A814281CB014081DB8146816C014101C49
:10543000C8146818D014101DD814681AE014181C69
:10544000E814681CF014181DF814681E08152015BF
:105450001015401518156015201528182815281C3A
:10546000301548153815A8164815A8185815A81A43
:105470006015281A6815A81C7015A81A7815A81E9A
:105480008015401C8815601C9015401D9815601DE6
:10549000A015481CA815681CB015481DB815E816BD
:1054A000C015501CC815E818D015501DD815E81A9D
:1054B000E015581CE815E81CF015581DF815E81EF5
:1054C0000016001C0816081C1016401C1816481C54
:1054D0002016201C2816281C3016601C3816281789
:1054E0004016001D481628195016401D5816281B36
:1054F0006016201D6816281D7016601D7816281F5E
:105500008016801C8816A01C9016801D9816A01D61
:10551000A016881CA816A81CB016881DB8166817F7
:10552000C016901CC8166819D016901DD816681B96
:10553000E016981CE816681DF016981DF816681FEE
:105540000017101C0817181C1017501C1817581C8F
:10555000201768182817681C3017E8183817A8177C
:105560004017101D4817A8195017501D5817A81B91
:105570006017681A6817A81D7017E81A7817A81F0F
:105580008017C01C8817E01C9017C01D9817E01DDD
:10559000A017C81CA817E81CB017C81DB817E81733
:1055A000C017D01CC817E819D017D01DD817E81B92
:1055B000E017D81CE817E81DF017D81DF817E81FEA
:1055C00018186018301848183818601C5818301A05
:1055D0006818301C7018181A7818301E8018001AB5
:1055E0008818081A9018001B98186019A018201A1B
:1055F000A818281AB018201BB818601DC018101A57
:10560000C818181AD018101BD818701AE018301AB9
:10561000E818701CF018581AF818701E081920198C
:105620001819601A2819081D301988193819881D89
:105630004819201B5819B01A6019081B6819B01CAA
:105640007019881B7819B01E8019401A8819481AD9
:105650009019401B9819601BA019601AA819181DF1
:10566000B019601BB819981DC019501AC819581ADA
:10567000D019501BD819F01AE019181BE819F01CA2
:10568000F019981BF819F01E381A701C581A301BA4
:10569000681A301D701A181B781A301F901AC01A19
:1056A000981AC81AB01AE01AB81AE81AC01A801B59
:1056B000C81A881BD01AC01BD81A701BE01AA01B6E
:1056C000E81A701DF01AE01BF81A701F281B481DFD
:1056D000381BC81D481B601B581BB01B681BB01D26
:1056E000701BC81B781BB01F901BC01B981BC81BCE
:1056F000A81B581DB01BE01BB81BD81DD81BF01BE6
:10570000E81BF01DF81BF01F081C201C181C301C87
:10571000381C681C481C601C581C701C781C381EE7
:10572000801C001E881C201E901C001F981C201F1F
:10573000A01C081EA81C281EB01C081FB81C281F6F
:10574000C01C101EC81C301ED01C101FD81C301FBF
:10575000E01C181EE81C381EF01C181FF81C781ED0
:10576000081D201D181D301D381DA81D481D601D59
:10577000581D701D681D281F781DB81E801D401EF5
:10578000881D601E901D401F981D601FA01D481E93
:10579000A81D681EB01D481FB81D681FC01D501EE3
:1057A000C81D701ED01D501FD81D701FE01D581E33
:1057B000E81D781EF01D581FF81DF81E081E201E3B
:1057C000181E301E481E601E581E701E781E381F80
:1057D000881EA01E901E801F981EA01FB01E881F2E
:1057E000B81EA81FC01E801FC81E881FD01E901F75
:1057F000D81EB01FE01EA01FE81EA81FF01E981F95
:10580000F81E781F081F201F181F301F481F601F19
:10581000581F701F781FB81F881FA01F901FC01F20
:10582000981FE01FB01FC81FB81FE81FC81FE01F48
:10583000D81FF01F5458000800000020840000000A
:105840007C1D0008D858000884000020CC340100DA
:105850008C1D000800E1F5050000000000000000BC
:105860000102030406070809000000000000000010
:1058700000000000000000000000000055AB5712BF
:105880000CA8D1FF00CC8911EF88220A000000008B
:105890000000000000000000000000000000000008
:1058A00000000000000000000000000000000000F8
:1058B00000000000000000000000803F0000000029
:1058C00000000000000000000102030401020304C4
:0858D0000607080900000000B2
:040000050800025994
:00000001FF
